{
  "transactions": [
    {
      "hash": "0x0ba9a404c65f548122c36d8c0761791f0fe42d2afddb66679c4a68fb5a41b757",
      "transactionType": "CREATE",
      "contractName": "SHMToken",
      "contractAddress": "0xd1a15dc832ca8c21ebb29bd3d8dcab01e3d9428c",
      "function": null,
      "arguments": null,
      "transaction": {
        "from": "0xc7707c2e698895f640a37fbebaa9e719cf8bd34e",
        "gas": "0xebdb1",
        "value": "0x0",
        "input": "0x608060405234801562000010575f80fd5b50336040518060400160405280600881526020016729a426aa37b5b2b760c11b8152506040518060400160405280600381526020016253484d60e81b815250816003908162000060919062000337565b5060046200006f828262000337565b5050506001600160a01b038116620000a157604051631e4fbdf760e01b81525f60048201526024015b60405180910390fd5b620000ac81620000db565b50620000d533620000c06012600a6200050e565b620000cf90620f424062000525565b6200012c565b62000555565b600580546001600160a01b038381166001600160a01b0319831681179093556040519116919082907f8be0079c531659141344cd1fd0a4f28419497f9722a3daafe3b4186f6b6457e0905f90a35050565b6001600160a01b038216620001575760405163ec442f0560e01b81525f600482015260240162000098565b620001645f838362000168565b5050565b6001600160a01b03831662000196578060025f8282546200018a91906200053f565b90915550620002089050565b6001600160a01b0383165f9081526020819052604090205481811015620001ea5760405163391434e360e21b81526001600160a01b0385166004820152602481018290526044810183905260640162000098565b6001600160a01b0384165f9081526020819052604090209082900390555b6001600160a01b038216620002265760028054829003905562000244565b6001600160a01b0382165f9081526020819052604090208054820190555b816001600160a01b0316836001600160a01b03167fddf252ad1be2c89b69c2b068fc378daa952ba7f163c4a11628f55a4df523b3ef836040516200028a91815260200190565b60405180910390a3505050565b634e487b7160e01b5f52604160045260245ffd5b600181811c90821680620002c057607f821691505b602082108103620002df57634e487b7160e01b5f52602260045260245ffd5b50919050565b601f82111562000332575f81815260208120601f850160051c810160208610156200030d5750805b601f850160051c820191505b818110156200032e5782815560010162000319565b5050505b505050565b81516001600160401b0381111562000353576200035362000297565b6200036b81620003648454620002ab565b84620002e5565b602080601f831160018114620003a1575f8415620003895750858301515b5f19600386901b1c1916600185901b1785556200032e565b5f85815260208120601f198616915b82811015620003d157888601518255948401946001909101908401620003b0565b5085821015620003ef57878501515f19600388901b60f8161c191681555b5050505050600190811b01905550565b634e487b7160e01b5f52601160045260245ffd5b600181815b808511156200045357815f1904821115620004375762000437620003ff565b808516156200044557918102915b93841c939080029062000418565b509250929050565b5f826200046b5750600162000508565b816200047957505f62000508565b81600181146200049257600281146200049d57620004bd565b600191505062000508565b60ff841115620004b157620004b1620003ff565b50506001821b62000508565b5060208310610133831016604e8410600b8410161715620004e2575081810a62000508565b620004ee838362000413565b805f1904821115620005045762000504620003ff565b0290505b92915050565b5f6200051e60ff8416836200045b565b9392505050565b8082028115828204841417620005085762000508620003ff565b80820180821115620005085762000508620003ff565b6109ff80620005635f395ff3fe608060405234801561000f575f80fd5b50600436106100f0575f3560e01c806370a082311161009357806395d89b411161006357806395d89b41146101ef578063a9059cbb146101f7578063dd62ed3e1461020a578063f2fde38b14610242575f80fd5b806370a0823114610191578063715018a6146101b957806379cc6790146101c15780638da5cb5b146101d4575f80fd5b806323b872dd116100ce57806323b872dd14610147578063313ce5671461015a57806340c10f191461016957806342966c681461017e575f80fd5b806306fdde03146100f4578063095ea7b31461011257806318160ddd14610135575b5f80fd5b6100fc610255565b6040516101099190610843565b60405180910390f35b6101256101203660046108a9565b6102e5565b6040519015158152602001610109565b6002545b604051908152602001610109565b6101256101553660046108d1565b6102fe565b60405160128152602001610109565b61017c6101773660046108a9565b610321565b005b61017c61018c36600461090a565b610337565b61013961019f366004610921565b6001600160a01b03165f9081526020819052604090205490565b61017c610344565b61017c6101cf3660046108a9565b610357565b6005546040516001600160a01b039091168152602001610109565b6100fc61036c565b6101256102053660046108a9565b61037b565b610139610218366004610941565b6001600160a01b039182165f90815260016020908152604080832093909416825291909152205490565b61017c610250366004610921565b610388565b60606003805461026490610972565b80601f016020809104026020016040519081016040528092919081815260200182805461029090610972565b80156102db5780601f106102b2576101008083540402835291602001916102db565b820191905f5260205f20905b8154815290600101906020018083116102be57829003601f168201915b5050505050905090565b5f336102f281858561047a565b60019150505b92915050565b5f3361030b85828561048c565b610316858585610508565b506001949350505050565b610329610565565b6103338282610592565b5050565b61034133826105c6565b50565b61034c610565565b6103555f6105fa565b565b61036282338361048c565b61033382826105c6565b60606004805461026490610972565b5f336102f2818585610508565b610390610565565b6001600160a01b0381166103f75760405162461bcd60e51b8152602060048201526024808201527f4e6577206f776e65722063616e6e6f7420626520746865207a65726f206164646044820152637265737360e01b60648201526084015b60405180910390fd5b6005546001600160a01b03166001600160a01b0316816001600160a01b0316036104715760405162461bcd60e51b815260206004820152602560248201527f4e6577206f776e65722063616e6e6f74206265207468652063757272656e742060448201526437bbb732b960d91b60648201526084016103ee565b610341816105fa565b610487838383600161064b565b505050565b6001600160a01b038381165f908152600160209081526040808320938616835292905220545f1981101561050257818110156104f457604051637dc7a0d960e11b81526001600160a01b038416600482015260248101829052604481018390526064016103ee565b61050284848484035f61064b565b50505050565b6001600160a01b03831661053157604051634b637e8f60e11b81525f60048201526024016103ee565b6001600160a01b03821661055a5760405163ec442f0560e01b81525f60048201526024016103ee565b61048783838361071d565b6005546001600160a01b031633146103555760405163118cdaa760e01b81523360048201526024016103ee565b6001600160a01b0382166105bb5760405163ec442f0560e01b81525f60048201526024016103ee565b6103335f838361071d565b6001600160a01b0382166105ef57604051634b637e8f60e11b81525f60048201526024016103ee565b610333825f8361071d565b600580546001600160a01b038381166001600160a01b0319831681179093556040519116919082907f8be0079c531659141344cd1fd0a4f28419497f9722a3daafe3b4186f6b6457e0905f90a35050565b6001600160a01b0384166106745760405163e602df0560e01b81525f60048201526024016103ee565b6001600160a01b03831661069d57604051634a1406b160e11b81525f60048201526024016103ee565b6001600160a01b038085165f908152600160209081526040808320938716835292905220829055801561050257826001600160a01b0316846001600160a01b03167f8c5be1e5ebec7d5bd14f71427d1e84f3dd0314c0f7b2291e5b200ac8c7c3b9258460405161070f91815260200190565b60405180910390a350505050565b6001600160a01b038316610747578060025f82825461073c91906109aa565b909155506107b79050565b6001600160a01b0383165f90815260208190526040902054818110156107995760405163391434e360e21b81526001600160a01b038516600482015260248101829052604481018390526064016103ee565b6001600160a01b0384165f9081526020819052604090209082900390555b6001600160a01b0382166107d3576002805482900390556107f1565b6001600160a01b0382165f9081526020819052604090208054820190555b816001600160a01b0316836001600160a01b03167fddf252ad1be2c89b69c2b068fc378daa952ba7f163c4a11628f55a4df523b3ef8360405161083691815260200190565b60405180910390a3505050565b5f6020808352835180828501525f5b8181101561086e57858101830151858201604001528201610852565b505f604082860101526040601f19601f8301168501019250505092915050565b80356001600160a01b03811681146108a4575f80fd5b919050565b5f80604083850312156108ba575f80fd5b6108c38361088e565b946020939093013593505050565b5f805f606084860312156108e3575f80fd5b6108ec8461088e565b92506108fa6020850161088e565b9150604084013590509250925092565b5f6020828403121561091a575f80fd5b5035919050565b5f60208284031215610931575f80fd5b61093a8261088e565b9392505050565b5f8060408385031215610952575f80fd5b61095b8361088e565b91506109696020840161088e565b90509250929050565b600181811c9082168061098657607f821691505b6020821081036109a457634e487b7160e01b5f52602260045260245ffd5b50919050565b808201808211156102f857634e487b7160e01b5f52601160045260245ffdfea264697066735822122002564bfd470e65e3870b82f889a5aca7728b59e90fb95ddb963b05b921bb3f7b64736f6c63430008140033",
        "nonce": "0x69",
        "chainId": "0x4268"
      },
      "additionalContracts": [],
      "isFixedGasLimit": false
    },
    {
      "hash": "0xce1e480d6fd6a71bb51289147a5e5a4c5339953e031db2b92835d5f622a08cf4",
      "transactionType": "CREATE",
      "contractName": "SCBToken",
      "contractAddress": "0x45aeffd8226ad5501976303127fb2fde8d56189d",
      "function": null,
      "arguments": null,
      "transaction": {
        "from": "0xc7707c2e698895f640a37fbebaa9e719cf8bd34e",
        "gas": "0xebdb1",
        "value": "0x0",
        "input": "0x608060405234801562000010575f80fd5b50336040518060400160405280600881526020016729a1a12a37b5b2b760c11b8152506040518060400160405280600381526020016229a1a160e91b815250816003908162000060919062000337565b5060046200006f828262000337565b5050506001600160a01b038116620000a157604051631e4fbdf760e01b81525f60048201526024015b60405180910390fd5b620000ac81620000db565b50620000d533620000c06012600a6200050e565b620000cf90620f424062000525565b6200012c565b62000555565b600580546001600160a01b038381166001600160a01b0319831681179093556040519116919082907f8be0079c531659141344cd1fd0a4f28419497f9722a3daafe3b4186f6b6457e0905f90a35050565b6001600160a01b038216620001575760405163ec442f0560e01b81525f600482015260240162000098565b620001645f838362000168565b5050565b6001600160a01b03831662000196578060025f8282546200018a91906200053f565b90915550620002089050565b6001600160a01b0383165f9081526020819052604090205481811015620001ea5760405163391434e360e21b81526001600160a01b0385166004820152602481018290526044810183905260640162000098565b6001600160a01b0384165f9081526020819052604090209082900390555b6001600160a01b038216620002265760028054829003905562000244565b6001600160a01b0382165f9081526020819052604090208054820190555b816001600160a01b0316836001600160a01b03167fddf252ad1be2c89b69c2b068fc378daa952ba7f163c4a11628f55a4df523b3ef836040516200028a91815260200190565b60405180910390a3505050565b634e487b7160e01b5f52604160045260245ffd5b600181811c90821680620002c057607f821691505b602082108103620002df57634e487b7160e01b5f52602260045260245ffd5b50919050565b601f82111562000332575f81815260208120601f850160051c810160208610156200030d5750805b601f850160051c820191505b818110156200032e5782815560010162000319565b5050505b505050565b81516001600160401b0381111562000353576200035362000297565b6200036b81620003648454620002ab565b84620002e5565b602080601f831160018114620003a1575f8415620003895750858301515b5f19600386901b1c1916600185901b1785556200032e565b5f85815260208120601f198616915b82811015620003d157888601518255948401946001909101908401620003b0565b5085821015620003ef57878501515f19600388901b60f8161c191681555b5050505050600190811b01905550565b634e487b7160e01b5f52601160045260245ffd5b600181815b808511156200045357815f1904821115620004375762000437620003ff565b808516156200044557918102915b93841c939080029062000418565b509250929050565b5f826200046b5750600162000508565b816200047957505f62000508565b81600181146200049257600281146200049d57620004bd565b600191505062000508565b60ff841115620004b157620004b1620003ff565b50506001821b62000508565b5060208310610133831016604e8410600b8410161715620004e2575081810a62000508565b620004ee838362000413565b805f1904821115620005045762000504620003ff565b0290505b92915050565b5f6200051e60ff8416836200045b565b9392505050565b8082028115828204841417620005085762000508620003ff565b80820180821115620005085762000508620003ff565b6109ff80620005635f395ff3fe608060405234801561000f575f80fd5b50600436106100f0575f3560e01c806370a082311161009357806395d89b411161006357806395d89b41146101ef578063a9059cbb146101f7578063dd62ed3e1461020a578063f2fde38b14610242575f80fd5b806370a0823114610191578063715018a6146101b957806379cc6790146101c15780638da5cb5b146101d4575f80fd5b806323b872dd116100ce57806323b872dd14610147578063313ce5671461015a57806340c10f191461016957806342966c681461017e575f80fd5b806306fdde03146100f4578063095ea7b31461011257806318160ddd14610135575b5f80fd5b6100fc610255565b6040516101099190610843565b60405180910390f35b6101256101203660046108a9565b6102e5565b6040519015158152602001610109565b6002545b604051908152602001610109565b6101256101553660046108d1565b6102fe565b60405160128152602001610109565b61017c6101773660046108a9565b610321565b005b61017c61018c36600461090a565b610337565b61013961019f366004610921565b6001600160a01b03165f9081526020819052604090205490565b61017c610344565b61017c6101cf3660046108a9565b610357565b6005546040516001600160a01b039091168152602001610109565b6100fc61036c565b6101256102053660046108a9565b61037b565b610139610218366004610941565b6001600160a01b039182165f90815260016020908152604080832093909416825291909152205490565b61017c610250366004610921565b610388565b60606003805461026490610972565b80601f016020809104026020016040519081016040528092919081815260200182805461029090610972565b80156102db5780601f106102b2576101008083540402835291602001916102db565b820191905f5260205f20905b8154815290600101906020018083116102be57829003601f168201915b5050505050905090565b5f336102f281858561047a565b60019150505b92915050565b5f3361030b85828561048c565b610316858585610508565b506001949350505050565b610329610565565b6103338282610592565b5050565b61034133826105c6565b50565b61034c610565565b6103555f6105fa565b565b61036282338361048c565b61033382826105c6565b60606004805461026490610972565b5f336102f2818585610508565b610390610565565b6001600160a01b0381166103f75760405162461bcd60e51b8152602060048201526024808201527f4e6577206f776e65722063616e6e6f7420626520746865207a65726f206164646044820152637265737360e01b60648201526084015b60405180910390fd5b6005546001600160a01b03166001600160a01b0316816001600160a01b0316036104715760405162461bcd60e51b815260206004820152602560248201527f4e6577206f776e65722063616e6e6f74206265207468652063757272656e742060448201526437bbb732b960d91b60648201526084016103ee565b610341816105fa565b610487838383600161064b565b505050565b6001600160a01b038381165f908152600160209081526040808320938616835292905220545f1981101561050257818110156104f457604051637dc7a0d960e11b81526001600160a01b038416600482015260248101829052604481018390526064016103ee565b61050284848484035f61064b565b50505050565b6001600160a01b03831661053157604051634b637e8f60e11b81525f60048201526024016103ee565b6001600160a01b03821661055a5760405163ec442f0560e01b81525f60048201526024016103ee565b61048783838361071d565b6005546001600160a01b031633146103555760405163118cdaa760e01b81523360048201526024016103ee565b6001600160a01b0382166105bb5760405163ec442f0560e01b81525f60048201526024016103ee565b6103335f838361071d565b6001600160a01b0382166105ef57604051634b637e8f60e11b81525f60048201526024016103ee565b610333825f8361071d565b600580546001600160a01b038381166001600160a01b0319831681179093556040519116919082907f8be0079c531659141344cd1fd0a4f28419497f9722a3daafe3b4186f6b6457e0905f90a35050565b6001600160a01b0384166106745760405163e602df0560e01b81525f60048201526024016103ee565b6001600160a01b03831661069d57604051634a1406b160e11b81525f60048201526024016103ee565b6001600160a01b038085165f908152600160209081526040808320938716835292905220829055801561050257826001600160a01b0316846001600160a01b03167f8c5be1e5ebec7d5bd14f71427d1e84f3dd0314c0f7b2291e5b200ac8c7c3b9258460405161070f91815260200190565b60405180910390a350505050565b6001600160a01b038316610747578060025f82825461073c91906109aa565b909155506107b79050565b6001600160a01b0383165f90815260208190526040902054818110156107995760405163391434e360e21b81526001600160a01b038516600482015260248101829052604481018390526064016103ee565b6001600160a01b0384165f9081526020819052604090209082900390555b6001600160a01b0382166107d3576002805482900390556107f1565b6001600160a01b0382165f9081526020819052604090208054820190555b816001600160a01b0316836001600160a01b03167fddf252ad1be2c89b69c2b068fc378daa952ba7f163c4a11628f55a4df523b3ef8360405161083691815260200190565b60405180910390a3505050565b5f6020808352835180828501525f5b8181101561086e57858101830151858201604001528201610852565b505f604082860101526040601f19601f8301168501019250505092915050565b80356001600160a01b03811681146108a4575f80fd5b919050565b5f80604083850312156108ba575f80fd5b6108c38361088e565b946020939093013593505050565b5f805f606084860312156108e3575f80fd5b6108ec8461088e565b92506108fa6020850161088e565b9150604084013590509250925092565b5f6020828403121561091a575f80fd5b5035919050565b5f60208284031215610931575f80fd5b61093a8261088e565b9392505050565b5f8060408385031215610952575f80fd5b61095b8361088e565b91506109696020840161088e565b90509250929050565b600181811c9082168061098657607f821691505b6020821081036109a457634e487b7160e01b5f52602260045260245ffd5b50919050565b808201808211156102f857634e487b7160e01b5f52601160045260245ffdfea2646970667358221220a3137c672cc303e6bd88446c32503ac607fd932cc7bdf22bb9ca2735e14a312464736f6c63430008140033",
        "nonce": "0x6a",
        "chainId": "0x4268"
      },
      "additionalContracts": [],
      "isFixedGasLimit": false
    },
    {
      "hash": "0x126bbbcd8963e1ea133ef173b81103f420da8790e324b8127693fea07d1fad95",
      "transactionType": "CREATE",
      "contractName": "StakingContract",
      "contractAddress": "0x37f83929309bb74e55cd5e13c9408d4752a9d0ae",
      "function": null,
      "arguments": null,
      "transaction": {
        "from": "0xc7707c2e698895f640a37fbebaa9e719cf8bd34e",
        "gas": "0x149be0",
        "value": "0x0",
        "input": "0x608060405234801561000f575f80fd5b5061001861001d565b6100d9565b5f54610100900460ff16156100885760405162461bcd60e51b815260206004820152602760248201527f496e697469616c697a61626c653a20636f6e747261637420697320696e697469604482015266616c697a696e6760c81b606482015260840160405180910390fd5b5f5460ff908116146100d7575f805460ff191660ff9081179091556040519081527f7f26b83ff96e1f2b6a682f133852f6798a09c465da95921460cefb38474024989060200160405180910390a15b565b611153806100e65f395ff3fe608060405234801561000f575f80fd5b5060043610610127575f3560e01c80638da5cb5b116100a9578063bb872b4a1161006e578063bb872b4a14610252578063e3161ddd14610265578063f2fde38b1461026d578063f7c618c114610280578063f8b2cb4f14610293575f80fd5b80638da5cb5b14610209578063939d62371461021a5780639cfbc00214610223578063a218141b14610236578063b6b55f251461023f575f80fd5b806372f702f3116100ef57806372f702f3146101a35780638129fc1c146101ce578063817b1cd2146101d65780638ae39cac146101ed5780638aee8127146101f6575f80fd5b80631959a0021461012b5780631e9b12ef1461016b5780633ccfd60b1461018057806344aac9a714610188578063715018a61461019b575b5f80fd5b610151610139366004610f73565b606c6020525f90815260409020805460019091015482565b604080519283526020830191909152015b60405180910390f35b61017e610179366004610f73565b6102a6565b005b61017e61034a565b61017e610196366004610f73565b61045e565b61017e6104fe565b6065546101b6906001600160a01b031681565b6040516001600160a01b039091168152602001610162565b61017e610511565b6101df60695481565b604051908152602001610162565b6101df60685481565b61017e610204366004610f73565b610621565b6033546001600160a01b03166101b6565b6101df606b5481565b6067546101b6906001600160a01b031681565b6101df606a5481565b61017e61024d366004610fa0565b6106c0565b61017e610260366004610fa0565b610854565b61017e610899565b61017e61027b366004610f73565b610973565b6066546101b6906001600160a01b031681565b6101516102a1366004610f73565b6109e9565b6102ae610aac565b6001600160a01b0381166103015760405162461bcd60e51b8152602060048201526015602482015274496e76616c696420746f6b656e206164647265737360581b60448201526064015b60405180910390fd5b606580546001600160a01b0319166001600160a01b0383169081179091556040517f9904a32444ae0eb0bae2045baf588aa248f03f4fef600c18afd1d7e751614af8905f90a250565b335f908152606c6020526040902080548061039a5760405162461bcd60e51b815260206004820152601060248201526f4e6f207374616b656420746f6b656e7360801b60448201526064016102f8565b6067546001600160a01b03166103ea5760405162461bcd60e51b815260206004820152601560248201527414995dd85c99081cdbdd5c98d9481b9bdd081cd95d605a1b60448201526064016102f8565b6103f2610899565b5f826001015464e8d4a51000606b548461040c9190610fcb565b6104169190610fe8565b6104209190611007565b90508015610432576104323382610b06565b81156104595760655461044f906001600160a01b03163384610bc7565b5f80845560018401555b505050565b610466610aac565b6001600160a01b0381166104b55760405162461bcd60e51b8152602060048201526016602482015275496e76616c696420736f75726365206164647265737360501b60448201526064016102f8565b606780546001600160a01b0319166001600160a01b0383169081179091556040517f32f03954e9e3ba44f0b075ffe0c3aabcbd5fc37414ef9dab90bb321606263d78905f90a250565b610506610aac565b61050f5f610c2a565b565b5f54610100900460ff161580801561052f57505f54600160ff909116105b806105485750303b15801561054857505f5460ff166001145b6105ab5760405162461bcd60e51b815260206004820152602e60248201527f496e697469616c697a61626c653a20636f6e747261637420697320616c72656160448201526d191e481a5b9a5d1a585b1a5e995960921b60648201526084016102f8565b5f805460ff1916600117905580156105cc575f805461ff0019166101001790555b6105d4610c7b565b43606a55801561061e575f805461ff0019169055604051600181527f7f26b83ff96e1f2b6a682f133852f6798a09c465da95921460cefb3847402498906020015b60405180910390a15b50565b610629610aac565b6001600160a01b0381166106775760405162461bcd60e51b8152602060048201526015602482015274496e76616c696420746f6b656e206164647265737360581b60448201526064016102f8565b606680546001600160a01b0319166001600160a01b0383169081179091556040517f2d6b04df9b7d358407d1a014f1114b064add34c19d63d395db155a7e533e967a905f90a250565b6065546001600160a01b03166107105760405162461bcd60e51b815260206004820152601560248201527414dd185ada5b99c81d1bdad95b881b9bdd081cd95d605a1b60448201526064016102f8565b5f811161075f5760405162461bcd60e51b815260206004820152601d60248201527f416d6f756e74206d7573742062652067726561746572207468616e203000000060448201526064016102f8565b335f908152606c60205260409020610775610899565b8054156107c1575f816001015464e8d4a51000606b54845f01546107999190610fcb565b6107a39190610fe8565b6107ad9190611007565b905080156107bf576107bf3382610b06565b505b811561081b576065546107df906001600160a01b0316333085610ca9565b81815f015f8282546107f1919061101a565b9091555050606b54815464e8d4a510009161080b91610fcb565b6108159190610fe8565b60018201555b60405182815233907f9e71bc8eea02a63969f509818f2dafb9254532904319f9dbda79b67bd34a5f3d9060200160405180910390a25050565b61085c610aac565b610864610899565b60688190556040518181527f5d7c78d0ee3ce6196f90e74ed58c0ada9ac7ccc47d3aca0547ac893776f0382690602001610615565b606a544381106108a65750565b6065546040516370a0823160e01b81523060048201525f916001600160a01b0316906370a0823190602401602060405180830381865afa1580156108ec573d5f803e3d5ffd5b505050506040513d601f19601f82011682018060405250810190610910919061102d565b9050805f0361092157505043606a55565b5f61092c8343611007565b90505f6068548261093d9190610fcb565b90508261094f64e8d4a5100083610fcb565b6109599190610fe8565b606b54610966919061101a565b606b55505043606a555050565b61097b610aac565b6001600160a01b0381166109e05760405162461bcd60e51b815260206004820152602660248201527f4f776e61626c653a206e6577206f776e657220697320746865207a65726f206160448201526564647265737360d01b60648201526084016102f8565b61061e81610c2a565b6001600160a01b0381165f908152606c602052604081208054606b54606a54606954929493924382108015610a1d57505f81115b15610a69575f610a2d8343611007565b90505f60685482610a3e9190610fcb565b905082610a5064e8d4a5100083610fcb565b610a5a9190610fe8565b610a64908661101a565b945050505b8515610a9f57600184015464e8d4a51000610a848589610fcb565b610a8e9190610fe8565b610a989190611007565b9450610aa3565b5f94505b50505050915091565b6033546001600160a01b0316331461050f5760405162461bcd60e51b815260206004820181905260248201527f4f776e61626c653a2063616c6c6572206973206e6f7420746865206f776e657260448201526064016102f8565b6066546001600160a01b0316610b555760405162461bcd60e51b815260206004820152601460248201527314995dd85c99081d1bdad95b881b9bdd081cd95d60621b60448201526064016102f8565b6067546001600160a01b0316610ba55760405162461bcd60e51b815260206004820152601560248201527414995dd85c99081cdbdd5c98d9481b9bdd081cd95d605a1b60448201526064016102f8565b606754606654610bc3916001600160a01b0391821691168484610ca9565b5050565b6040516001600160a01b03831660248201526044810182905261045990849063a9059cbb60e01b906064015b60408051601f198184030181529190526020810180516001600160e01b03166001600160e01b031990931692909217909152610ce7565b603380546001600160a01b038381166001600160a01b0319831681179093556040519116919082907f8be0079c531659141344cd1fd0a4f28419497f9722a3daafe3b4186f6b6457e0905f90a35050565b5f54610100900460ff16610ca15760405162461bcd60e51b81526004016102f890611044565b61050f610dba565b6040516001600160a01b0380851660248301528316604482015260648101829052610ce19085906323b872dd60e01b90608401610bf3565b50505050565b5f610d3b826040518060400160405280602081526020017f5361666545524332303a206c6f772d6c6576656c2063616c6c206661696c6564815250856001600160a01b0316610de99092919063ffffffff16565b905080515f1480610d5b575080806020019051810190610d5b919061108f565b6104595760405162461bcd60e51b815260206004820152602a60248201527f5361666545524332303a204552433230206f7065726174696f6e20646964206e6044820152691bdd081cdd58d8d9595960b21b60648201526084016102f8565b5f54610100900460ff16610de05760405162461bcd60e51b81526004016102f890611044565b61050f33610c2a565b6060610df784845f85610dff565b949350505050565b606082471015610e605760405162461bcd60e51b815260206004820152602660248201527f416464726573733a20696e73756666696369656e742062616c616e636520666f6044820152651c8818d85b1b60d21b60648201526084016102f8565b5f80866001600160a01b03168587604051610e7b91906110d0565b5f6040518083038185875af1925050503d805f8114610eb5576040519150601f19603f3d011682016040523d82523d5f602084013e610eba565b606091505b5091509150610ecb87838387610ed6565b979650505050505050565b60608315610f445782515f03610f3d576001600160a01b0385163b610f3d5760405162461bcd60e51b815260206004820152601d60248201527f416464726573733a2063616c6c20746f206e6f6e2d636f6e747261637400000060448201526064016102f8565b5081610df7565b610df78383815115610f595781518083602001fd5b8060405162461bcd60e51b81526004016102f891906110eb565b5f60208284031215610f83575f80fd5b81356001600160a01b0381168114610f99575f80fd5b9392505050565b5f60208284031215610fb0575f80fd5b5035919050565b634e487b7160e01b5f52601160045260245ffd5b8082028115828204841417610fe257610fe2610fb7565b92915050565b5f8261100257634e487b7160e01b5f52601260045260245ffd5b500490565b81810381811115610fe257610fe2610fb7565b80820180821115610fe257610fe2610fb7565b5f6020828403121561103d575f80fd5b5051919050565b6020808252602b908201527f496e697469616c697a61626c653a20636f6e7472616374206973206e6f74206960408201526a6e697469616c697a696e6760a81b606082015260800190565b5f6020828403121561109f575f80fd5b81518015158114610f99575f80fd5b5f5b838110156110c85781810151838201526020016110b0565b50505f910152565b5f82516110e18184602087016110ae565b9190910192915050565b602081525f82518060208401526111098160408501602087016110ae565b601f01601f1916919091016040019291505056fea26469706673582212201f127c96aa77a3ee5de393b0668092e4cb308b7590ebdf4ae746647c77c0508264736f6c63430008140033",
        "nonce": "0x6b",
        "chainId": "0x4268"
      },
      "additionalContracts": [],
      "isFixedGasLimit": false
    },
    {
      "hash": "0x1f016fdf8757bded307a02df585d62271f5e91d1952726bf01b316cac36eba1f",
      "transactionType": "CREATE",
      "contractName": null,
      "contractAddress": "0xf8a55a32f0ffda2e8f749417dc69aed32f095c7f",
      "function": null,
      "arguments": null,
      "transaction": {
        "from": "0xc7707c2e698895f640a37fbebaa9e719cf8bd34e",
        "gas": "0x13f7d",
        "value": "0x0",
        "input": "0x3d602d80600a3d3981f3363d3d373d3d3d363d7337f83929309bb74e55cd5e13c9408d4752a9d0ae5af43d82803e903d91602b57fd5bf3",
        "nonce": "0x6c",
        "chainId": "0x4268"
      },
      "additionalContracts": [],
      "isFixedGasLimit": false
    },
    {
      "hash": "0x8046c66f3682ad36fc275025ed3ab7726e9030658dc28774eeaf868bdf9cba16",
      "transactionType": "CALL",
      "contractName": null,
      "contractAddress": "0xf8a55a32f0ffda2e8f749417dc69aed32f095c7f",
      "function": "initialize()",
      "arguments": [],
      "transaction": {
        "from": "0xc7707c2e698895f640a37fbebaa9e719cf8bd34e",
        "to": "0xf8a55a32f0ffda2e8f749417dc69aed32f095c7f",
        "gas": "0x21928",
        "value": "0x0",
        "input": "0x8129fc1c",
        "nonce": "0x6d",
        "chainId": "0x4268"
      },
      "additionalContracts": [],
      "isFixedGasLimit": false
    },
    {
      "hash": "0xd4aaf8333547a0d888580a72ad01cddbeddd016eb45e6879dbc936527f1a241d",
      "transactionType": "CALL",
      "contractName": null,
      "contractAddress": "0xf8a55a32f0ffda2e8f749417dc69aed32f095c7f",
      "function": "setStakingToken(address)",
      "arguments": [
        "0xd1A15dc832cA8C21EBB29bD3d8dcAb01E3D9428c"
      ],
      "transaction": {
        "from": "0xc7707c2e698895f640a37fbebaa9e719cf8bd34e",
        "to": "0xf8a55a32f0ffda2e8f749417dc69aed32f095c7f",
        "gas": "0x10d54",
        "value": "0x0",
        "input": "0x1e9b12ef000000000000000000000000d1a15dc832ca8c21ebb29bd3d8dcab01e3d9428c",
        "nonce": "0x6e",
        "chainId": "0x4268"
      },
      "additionalContracts": [],
      "isFixedGasLimit": false
    },
    {
      "hash": "0xe02cdd9b1c740aab280454d196ece8ca00475b015a15f877606edb6523bd7cbf",
      "transactionType": "CALL",
      "contractName": null,
      "contractAddress": "0xf8a55a32f0ffda2e8f749417dc69aed32f095c7f",
      "function": "setRewardToken(address)",
      "arguments": [
        "0x45AefFD8226ad5501976303127FB2fde8D56189d"
      ],
      "transaction": {
        "from": "0xc7707c2e698895f640a37fbebaa9e719cf8bd34e",
        "to": "0xf8a55a32f0ffda2e8f749417dc69aed32f095c7f",
        "gas": "0x10dad",
        "value": "0x0",
        "input": "0x8aee812700000000000000000000000045aeffd8226ad5501976303127fb2fde8d56189d",
        "nonce": "0x6f",
        "chainId": "0x4268"
      },
      "additionalContracts": [],
      "isFixedGasLimit": false
    },
    {
      "hash": "0x4a914d462405b5975189778af941303182c10636bb9a5c35d947e8ac334d5e0f",
      "transactionType": "CALL",
      "contractName": null,
      "contractAddress": "0xf8a55a32f0ffda2e8f749417dc69aed32f095c7f",
      "function": "setRewardSource(address)",
      "arguments": [
        "0xC7707c2E698895f640a37FBEBaa9E719cF8bD34E"
      ],
      "transaction": {
        "from": "0xc7707c2e698895f640a37fbebaa9e719cf8bd34e",
        "to": "0xf8a55a32f0ffda2e8f749417dc69aed32f095c7f",
        "gas": "0x11d6d",
        "value": "0x0",
        "input": "0x44aac9a7000000000000000000000000c7707c2e698895f640a37fbebaa9e719cf8bd34e",
        "nonce": "0x70",
        "chainId": "0x4268"
      },
      "additionalContracts": [],
      "isFixedGasLimit": false
    },
    {
      "hash": "0x2d7dc15d371616d654734837f41f8753b1798d2ca9f88180c7ae6febd86446d2",
      "transactionType": "CALL",
      "contractName": null,
      "contractAddress": "0xf8a55a32f0ffda2e8f749417dc69aed32f095c7f",
      "function": "setRewardPerBlock(uint256)",
      "arguments": [
        "1000000000000000000"
      ],
      "transaction": {
        "from": "0xc7707c2e698895f640a37fbebaa9e719cf8bd34e",
        "to": "0xf8a55a32f0ffda2e8f749417dc69aed32f095c7f",
        "gas": "0x116c7",
        "value": "0x0",
        "input": "0xbb872b4a0000000000000000000000000000000000000000000000000de0b6b3a7640000",
        "nonce": "0x71",
        "chainId": "0x4268"
      },
      "additionalContracts": [],
      "isFixedGasLimit": false
    },
    {
      "hash": "0xf9a9a5e188228834d5468cef59614c4af2ef41304b950c64efa7ec1c851ac653",
      "transactionType": "CALL",
      "contractName": "SHMToken",
      "contractAddress": "0xd1a15dc832ca8c21ebb29bd3d8dcab01e3d9428c",
      "function": "mint(address,uint256)",
      "arguments": [
        "0xC7707c2E698895f640a37FBEBaa9E719cF8bD34E",
        "1000000000000000000000000"
      ],
      "transaction": {
        "from": "0xc7707c2e698895f640a37fbebaa9e719cf8bd34e",
        "to": "0xd1a15dc832ca8c21ebb29bd3d8dcab01e3d9428c",
        "gas": "0xd048",
        "value": "0x0",
        "input": "0x40c10f19000000000000000000000000c7707c2e698895f640a37fbebaa9e719cf8bd34e00000000000000000000000000000000000000000000d3c21bcecceda1000000",
        "nonce": "0x72",
        "chainId": "0x4268"
      },
      "additionalContracts": [],
      "isFixedGasLimit": false
    },
    {
      "hash": "0xbfad334caa48d5d679af4434226cb3dc9fda6e2bc465ff0dc85fb5a7f85ab4eb",
      "transactionType": "CALL",
      "contractName": "SCBToken",
      "contractAddress": "0x45aeffd8226ad5501976303127fb2fde8d56189d",
      "function": "mint(address,uint256)",
      "arguments": [
        "0xC7707c2E698895f640a37FBEBaa9E719cF8bD34E",
        "1000000000000000000000000"
      ],
      "transaction": {
        "from": "0xc7707c2e698895f640a37fbebaa9e719cf8bd34e",
        "to": "0x45aeffd8226ad5501976303127fb2fde8d56189d",
        "gas": "0xd048",
        "value": "0x0",
        "input": "0x40c10f19000000000000000000000000c7707c2e698895f640a37fbebaa9e719cf8bd34e00000000000000000000000000000000000000000000d3c21bcecceda1000000",
        "nonce": "0x73",
        "chainId": "0x4268"
      },
      "additionalContracts": [],
      "isFixedGasLimit": false
    },
    {
      "hash": "0xd16256bcae6bd4ba0fdd6f8a91fc6a39375abebcb0f716bfd1ff3087952223df",
      "transactionType": "CALL",
      "contractName": "SHMToken",
      "contractAddress": "0xd1a15dc832ca8c21ebb29bd3d8dcab01e3d9428c",
      "function": "approve(address,uint256)",
      "arguments": [
        "0xf8A55A32F0ffDA2E8f749417Dc69aEd32F095c7F",
        "115792089237316195423570985008687907853269984665640564039457584007913129639935"
      ],
      "transaction": {
        "from": "0xc7707c2e698895f640a37fbebaa9e719cf8bd34e",
        "to": "0xd1a15dc832ca8c21ebb29bd3d8dcab01e3d9428c",
        "gas": "0xfbfa",
        "value": "0x0",
        "input": "0x095ea7b3000000000000000000000000f8a55a32f0ffda2e8f749417dc69aed32f095c7fffffffffffffffffffffffffffffffffffffffffffffffffffffffffffffffff",
        "nonce": "0x74",
        "chainId": "0x4268"
      },
      "additionalContracts": [],
      "isFixedGasLimit": false
    },
    {
      "hash": "0x96409f4d5a18a59eae928ed7343ae359cb48b64e8d6641332566ca24aa6991db",
      "transactionType": "CALL",
      "contractName": "SCBToken",
      "contractAddress": "0x45aeffd8226ad5501976303127fb2fde8d56189d",
      "function": "approve(address,uint256)",
      "arguments": [
        "0xf8A55A32F0ffDA2E8f749417Dc69aEd32F095c7F",
        "115792089237316195423570985008687907853269984665640564039457584007913129639935"
      ],
      "transaction": {
        "from": "0xc7707c2e698895f640a37fbebaa9e719cf8bd34e",
        "to": "0x45aeffd8226ad5501976303127fb2fde8d56189d",
        "gas": "0xfbfa",
        "value": "0x0",
        "input": "0x095ea7b3000000000000000000000000f8a55a32f0ffda2e8f749417dc69aed32f095c7fffffffffffffffffffffffffffffffffffffffffffffffffffffffffffffffff",
        "nonce": "0x75",
        "chainId": "0x4268"
      },
      "additionalContracts": [],
      "isFixedGasLimit": false
    }
  ],
  "receipts": [
    {
      "status": "0x1",
      "cumulativeGasUsed": "0x24353d",
      "logs": [
        {
          "address": "0xd1a15dc832ca8c21ebb29bd3d8dcab01e3d9428c",
          "topics": [
            "0x8be0079c531659141344cd1fd0a4f28419497f9722a3daafe3b4186f6b6457e0",
            "0x0000000000000000000000000000000000000000000000000000000000000000",
            "0x000000000000000000000000c7707c2e698895f640a37fbebaa9e719cf8bd34e"
          ],
          "data": "0x",
          "blockHash": "0xc25dee24a61823ef41755301a1c336b791da1a6a5ce9e820679c6e0b336f9893",
          "blockNumber": "0x37ee89",
          "transactionHash": "0x0ba9a404c65f548122c36d8c0761791f0fe42d2afddb66679c4a68fb5a41b757",
          "transactionIndex": "0x5",
          "logIndex": "0x5",
          "removed": false
        },
        {
          "address": "0xd1a15dc832ca8c21ebb29bd3d8dcab01e3d9428c",
          "topics": [
            "0xddf252ad1be2c89b69c2b068fc378daa952ba7f163c4a11628f55a4df523b3ef",
            "0x0000000000000000000000000000000000000000000000000000000000000000",
            "0x000000000000000000000000c7707c2e698895f640a37fbebaa9e719cf8bd34e"
          ],
          "data": "0x00000000000000000000000000000000000000000000d3c21bcecceda1000000",
          "blockHash": "0xc25dee24a61823ef41755301a1c336b791da1a6a5ce9e820679c6e0b336f9893",
          "blockNumber": "0x37ee89",
          "transactionHash": "0x0ba9a404c65f548122c36d8c0761791f0fe42d2afddb66679c4a68fb5a41b757",
          "transactionIndex": "0x5",
          "logIndex": "0x6",
          "removed": false
        }
      ],
      "logsBloom": "0x00000000000000000000000000000000000000000000000000800000000000000000000000000000000000020000000000000000000000000000000002000000000000000000000000000008000000000001000000000000000080000000000000000000020000000000000000000800000000000000000000000010000000400000000000000000000000000000000000000004000000000000000000000000000000000100000000000000000000000000000000000000000000000000000000000042000000000000000000000000000000000000000000000000000020000000000000000000000000000000000000000000000000000000000000000000",
      "type": "0x0",
      "transactionHash": "0x0ba9a404c65f548122c36d8c0761791f0fe42d2afddb66679c4a68fb5a41b757",
      "transactionIndex": "0x5",
      "blockHash": "0xc25dee24a61823ef41755301a1c336b791da1a6a5ce9e820679c6e0b336f9893",
      "blockNumber": "0x37ee89",
      "gasUsed": "0xb56d7",
      "effectiveGasPrice": "0x1ff9a3",
      "from": "0xc7707c2e698895f640a37fbebaa9e719cf8bd34e",
      "to": null,
      "contractAddress": "0xd1a15dc832ca8c21ebb29bd3d8dcab01e3d9428c"
    },
    {
      "status": "0x1",
      "cumulativeGasUsed": "0x2f8c14",
      "logs": [
        {
          "address": "0x45aeffd8226ad5501976303127fb2fde8d56189d",
          "topics": [
            "0x8be0079c531659141344cd1fd0a4f28419497f9722a3daafe3b4186f6b6457e0",
            "0x0000000000000000000000000000000000000000000000000000000000000000",
            "0x000000000000000000000000c7707c2e698895f640a37fbebaa9e719cf8bd34e"
          ],
          "data": "0x",
          "blockHash": "0xc25dee24a61823ef41755301a1c336b791da1a6a5ce9e820679c6e0b336f9893",
          "blockNumber": "0x37ee89",
          "transactionHash": "0xce1e480d6fd6a71bb51289147a5e5a4c5339953e031db2b92835d5f622a08cf4",
          "transactionIndex": "0x6",
          "logIndex": "0x7",
          "removed": false
        },
        {
          "address": "0x45aeffd8226ad5501976303127fb2fde8d56189d",
          "topics": [
            "0xddf252ad1be2c89b69c2b068fc378daa952ba7f163c4a11628f55a4df523b3ef",
            "0x0000000000000000000000000000000000000000000000000000000000000000",
            "0x000000000000000000000000c7707c2e698895f640a37fbebaa9e719cf8bd34e"
          ],
          "data": "0x00000000000000000000000000000000000000000000d3c21bcecceda1000000",
          "blockHash": "0xc25dee24a61823ef41755301a1c336b791da1a6a5ce9e820679c6e0b336f9893",
          "blockNumber": "0x37ee89",
          "transactionHash": "0xce1e480d6fd6a71bb51289147a5e5a4c5339953e031db2b92835d5f622a08cf4",
          "transactionIndex": "0x6",
          "logIndex": "0x8",
          "removed": false
        }
      ],
      "logsBloom": "0x00000000000000000000000000000000000000000000000000800000000000000000000000000000000000020000000000020000000000000000000000000000000000010000000000000008000000000001000000000200000080000000000000000000020000000000000000000800000000000000000000000010000000400000000000000000000000000000000000000000000000000000000000000000000000000100000000000000000000000000000000000000000000000000000000000002000000000000000000000000000000000000000000000000000020000000000000000000000000000000000000000000000000000000000000000000",
      "type": "0x0",
      "transactionHash": "0xce1e480d6fd6a71bb51289147a5e5a4c5339953e031db2b92835d5f622a08cf4",
      "transactionIndex": "0x6",
      "blockHash": "0xc25dee24a61823ef41755301a1c336b791da1a6a5ce9e820679c6e0b336f9893",
      "blockNumber": "0x37ee89",
      "gasUsed": "0xb56d7",
      "effectiveGasPrice": "0x1ff9a3",
      "from": "0xc7707c2e698895f640a37fbebaa9e719cf8bd34e",
      "to": null,
      "contractAddress": "0x45aeffd8226ad5501976303127fb2fde8d56189d"
    },
    {
      "status": "0x1",
      "cumulativeGasUsed": "0x3f6672",
      "logs": [
        {
          "address": "0x37f83929309bb74e55cd5e13c9408d4752a9d0ae",
          "topics": [
            "0x7f26b83ff96e1f2b6a682f133852f6798a09c465da95921460cefb3847402498"
          ],
          "data": "0x00000000000000000000000000000000000000000000000000000000000000ff",
          "blockHash": "0xc25dee24a61823ef41755301a1c336b791da1a6a5ce9e820679c6e0b336f9893",
          "blockNumber": "0x37ee89",
          "transactionHash": "0x126bbbcd8963e1ea133ef173b81103f420da8790e324b8127693fea07d1fad95",
          "transactionIndex": "0x7",
          "logIndex": "0x9",
          "removed": false
        }
      ],
      "logsBloom": "0x00000000000000000001000000000000000000000000000000000000000000000000000000000000000000000000000000000000000000000000000000000000000000000000000000000000000000000000000000000000000000000000000000000000001000000000000000000000000000000000000000000000000000000000000000000000000000000000000000000000000080000000000000000000000000000000000000000000000400000000000000000000000000000000000000000000000000000000000000040000000000000000000000000000000000000000020000000000000000000000000000000000000000000000000000000000",
      "type": "0x0",
      "transactionHash": "0x126bbbcd8963e1ea133ef173b81103f420da8790e324b8127693fea07d1fad95",
      "transactionIndex": "0x7",
      "blockHash": "0xc25dee24a61823ef41755301a1c336b791da1a6a5ce9e820679c6e0b336f9893",
      "blockNumber": "0x37ee89",
      "gasUsed": "0xfda5e",
      "effectiveGasPrice": "0x1ff9a3",
      "from": "0xc7707c2e698895f640a37fbebaa9e719cf8bd34e",
      "to": null,
      "contractAddress": "0x37f83929309bb74e55cd5e13c9408d4752a9d0ae"
    },
    {
      "status": "0x1",
      "cumulativeGasUsed": "0x405c35",
      "logs": [],
      "logsBloom": "0x00000000000000000000000000000000000000000000000000000000000000000000000000000000000000000000000000000000000000000000000000000000000000000000000000000000000000000000000000000000000000000000000000000000000000000000000000000000000000000000000000000000000000000000000000000000000000000000000000000000000000000000000000000000000000000000000000000000000000000000000000000000000000000000000000000000000000000000000000000000000000000000000000000000000000000000000000000000000000000000000000000000000000000000000000000000",
      "type": "0x0",
      "transactionHash": "0x1f016fdf8757bded307a02df585d62271f5e91d1952726bf01b316cac36eba1f",
      "transactionIndex": "0x8",
      "blockHash": "0xc25dee24a61823ef41755301a1c336b791da1a6a5ce9e820679c6e0b336f9893",
      "blockNumber": "0x37ee89",
      "gasUsed": "0xf5c3",
      "effectiveGasPrice": "0x1ff9a3",
      "from": "0xc7707c2e698895f640a37fbebaa9e719cf8bd34e",
      "to": null,
      "contractAddress": "0xf8a55a32f0ffda2e8f749417dc69aed32f095c7f"
    },
    {
      "status": "0x1",
      "cumulativeGasUsed": "0x41cb7f",
      "logs": [
        {
          "address": "0xf8a55a32f0ffda2e8f749417dc69aed32f095c7f",
          "topics": [
            "0x8be0079c531659141344cd1fd0a4f28419497f9722a3daafe3b4186f6b6457e0",
            "0x0000000000000000000000000000000000000000000000000000000000000000",
            "0x000000000000000000000000c7707c2e698895f640a37fbebaa9e719cf8bd34e"
          ],
          "data": "0x",
          "blockHash": "0xc25dee24a61823ef41755301a1c336b791da1a6a5ce9e820679c6e0b336f9893",
          "blockNumber": "0x37ee89",
          "transactionHash": "0x8046c66f3682ad36fc275025ed3ab7726e9030658dc28774eeaf868bdf9cba16",
          "transactionIndex": "0x9",
          "logIndex": "0xa",
          "removed": false
        },
        {
          "address": "0xf8a55a32f0ffda2e8f749417dc69aed32f095c7f",
          "topics": [
            "0x7f26b83ff96e1f2b6a682f133852f6798a09c465da95921460cefb3847402498"
          ],
          "data": "0x0000000000000000000000000000000000000000000000000000000000000001",
          "blockHash": "0xc25dee24a61823ef41755301a1c336b791da1a6a5ce9e820679c6e0b336f9893",
          "blockNumber": "0x37ee89",
          "transactionHash": "0x8046c66f3682ad36fc275025ed3ab7726e9030658dc28774eeaf868bdf9cba16",
          "transactionIndex": "0x9",
          "logIndex": "0xb",
          "removed": false
        }
      ],
      "logsBloom": "0x00000000000000000000000000000000000000000000000000800000000000000000000000000000000000020000000000000000000000000000000000000000000000000000000000000000000000000001000000000000000080000000000000000000020000000000000000000800000000000000000000000000000000440000000000000000000000000000000000000000000080000000000000000000000000000100000000000010000400000000000000000000000000000000000000000000000000000000000000040000000000008000000000000000000020000000000000000000000000000000000000000000000000000000000000000000",
      "type": "0x0",
      "transactionHash": "0x8046c66f3682ad36fc275025ed3ab7726e9030658dc28774eeaf868bdf9cba16",
      "transactionIndex": "0x9",
      "blockHash": "0xc25dee24a61823ef41755301a1c336b791da1a6a5ce9e820679c6e0b336f9893",
      "blockNumber": "0x37ee89",
      "gasUsed": "0x16f4a",
      "effectiveGasPrice": "0x1ff9a3",
      "from": "0xc7707c2e698895f640a37fbebaa9e719cf8bd34e",
      "to": "0xf8a55a32f0ffda2e8f749417dc69aed32f095c7f",
      "contractAddress": null
    },
    {
      "status": "0x1",
      "cumulativeGasUsed": "0x428e7d",
      "logs": [
        {
          "address": "0xf8a55a32f0ffda2e8f749417dc69aed32f095c7f",
          "topics": [
            "0x9904a32444ae0eb0bae2045baf588aa248f03f4fef600c18afd1d7e751614af8",
            "0x000000000000000000000000d1a15dc832ca8c21ebb29bd3d8dcab01e3d9428c"
          ],
          "data": "0x",
          "blockHash": "0xc25dee24a61823ef41755301a1c336b791da1a6a5ce9e820679c6e0b336f9893",
          "blockNumber": "0x37ee89",
          "transactionHash": "0xd4aaf8333547a0d888580a72ad01cddbeddd016eb45e6879dbc936527f1a241d",
          "transactionIndex": "0xa",
          "logIndex": "0xc",
          "removed": false
        }
      ],
      "logsBloom": "0x00000000000000000000000000000000000000000000000000000000000000000000000000000000000000000000000000000000800000000000000000000000008000000000000000000000000000000000000000000000000000000000000000000000000000000000000000000000000000000080000000000000000000060000000000000000000000000000000000000000000000000000000000000000000000000000000000000010000000000008000000000000000000000000000000000000000000000000000000000000000008008000000000000000000000000000000000000000000000000000000000000000000000000000000000000000",
      "type": "0x0",
      "transactionHash": "0xd4aaf8333547a0d888580a72ad01cddbeddd016eb45e6879dbc936527f1a241d",
      "transactionIndex": "0xa",
      "blockHash": "0xc25dee24a61823ef41755301a1c336b791da1a6a5ce9e820679c6e0b336f9893",
      "blockNumber": "0x37ee89",
      "gasUsed": "0xc2fe",
      "effectiveGasPrice": "0x1ff9a3",
      "from": "0xc7707c2e698895f640a37fbebaa9e719cf8bd34e",
      "to": "0xf8a55a32f0ffda2e8f749417dc69aed32f095c7f",
      "contractAddress": null
    },
    {
      "status": "0x1",
      "cumulativeGasUsed": "0x4351bc",
      "logs": [
        {
          "address": "0xf8a55a32f0ffda2e8f749417dc69aed32f095c7f",
          "topics": [
            "0x2d6b04df9b7d358407d1a014f1114b064add34c19d63d395db155a7e533e967a",
            "0x00000000000000000000000045aeffd8226ad5501976303127fb2fde8d56189d"
          ],
          "data": "0x",
          "blockHash": "0xc25dee24a61823ef41755301a1c336b791da1a6a5ce9e820679c6e0b336f9893",
          "blockNumber": "0x37ee89",
          "transactionHash": "0xe02cdd9b1c740aab280454d196ece8ca00475b015a15f877606edb6523bd7cbf",
          "transactionIndex": "0xb",
          "logIndex": "0xd",
          "removed": false
        }
      ],
      "logsBloom": "0x00000000000000000000000000000000000000000000100000000000000000000000000000000000000000000000000000000000000000000000000000000000000000000000004000000000000000000000000000000000000000000000000000000000000000000000004000000000000000000000000000000000000000040000000000000000000000000000200000000000000002000000000000000000000000000000000000000010000000000000000000000000000000000000000000000000000000000000000000000000000000008000000000000000000000000000000000000000000000000000000000000000000400000000000000000000",
      "type": "0x0",
      "transactionHash": "0xe02cdd9b1c740aab280454d196ece8ca00475b015a15f877606edb6523bd7cbf",
      "transactionIndex": "0xb",
      "blockHash": "0xc25dee24a61823ef41755301a1c336b791da1a6a5ce9e820679c6e0b336f9893",
      "blockNumber": "0x37ee89",
      "gasUsed": "0xc33f",
      "effectiveGasPrice": "0x1ff9a3",
      "from": "0xc7707c2e698895f640a37fbebaa9e719cf8bd34e",
      "to": "0xf8a55a32f0ffda2e8f749417dc69aed32f095c7f",
      "contractAddress": null
    },
    {
      "status": "0x1",
      "cumulativeGasUsed": "0x4414e6",
      "logs": [
        {
          "address": "0xf8a55a32f0ffda2e8f749417dc69aed32f095c7f",
          "topics": [
            "0x32f03954e9e3ba44f0b075ffe0c3aabcbd5fc37414ef9dab90bb321606263d78",
            "0x000000000000000000000000c7707c2e698895f640a37fbebaa9e719cf8bd34e"
          ],
          "data": "0x",
          "blockHash": "0xc25dee24a61823ef41755301a1c336b791da1a6a5ce9e820679c6e0b336f9893",
          "blockNumber": "0x37ee89",
          "transactionHash": "0x4a914d462405b5975189778af941303182c10636bb9a5c35d947e8ac334d5e0f",
          "transactionIndex": "0xc",
          "logIndex": "0xe",
          "removed": false
        }
      ],
      "logsBloom": "0x00000000000000000000000000000040000000000000000000000000000000000000000000000000000000020000000000000000000000000000000000000000000000000000000000000000000000000000000000000000000080000000000000000000000000000000000000000000000000000000000000000000000000040000000000000000000000000000000000000000000000000000000000000000000000000100000000000010000000000000000000000000000000000000000000000000000000000000000000000040000000008000000000000000000000000000000000000000400000000000000000000000000000000000000000000000",
      "type": "0x0",
      "transactionHash": "0x4a914d462405b5975189778af941303182c10636bb9a5c35d947e8ac334d5e0f",
      "transactionIndex": "0xc",
      "blockHash": "0xc25dee24a61823ef41755301a1c336b791da1a6a5ce9e820679c6e0b336f9893",
      "blockNumber": "0x37ee89",
      "gasUsed": "0xc32a",
      "effectiveGasPrice": "0x1ff9a3",
      "from": "0xc7707c2e698895f640a37fbebaa9e719cf8bd34e",
      "to": "0xf8a55a32f0ffda2e8f749417dc69aed32f095c7f",
      "contractAddress": null
    },
    {
      "status": "0x1",
      "cumulativeGasUsed": "0x44debb",
      "logs": [
        {
          "address": "0xf8a55a32f0ffda2e8f749417dc69aed32f095c7f",
          "topics": [
            "0x5d7c78d0ee3ce6196f90e74ed58c0ada9ac7ccc47d3aca0547ac893776f03826"
          ],
          "data": "0x0000000000000000000000000000000000000000000000000de0b6b3a7640000",
          "blockHash": "0xc25dee24a61823ef41755301a1c336b791da1a6a5ce9e820679c6e0b336f9893",
          "blockNumber": "0x37ee89",
          "transactionHash": "0x2d7dc15d371616d654734837f41f8753b1798d2ca9f88180c7ae6febd86446d2",
          "transactionIndex": "0xd",
          "logIndex": "0xf",
          "removed": false
        }
      ],
      "logsBloom": "0x00000000000000000000000000000000000000000000000000000000000000000000000000000000000000000000000000000080000000000000000000000000000000000000000000000000000000000000000000000000000000000000000000000000000000000000000000000000000000000000000000000000000000040000000000000000000000000000000000000000000000000000000000000000000000000000000000000010000000000000000000000000000000000000000000040000000000000000000000000000000000008000000000000000000000000000000000000000000000000000000000000000000000000020000000000000",
      "type": "0x0",
      "transactionHash": "0x2d7dc15d371616d654734837f41f8753b1798d2ca9f88180c7ae6febd86446d2",
      "transactionIndex": "0xd",
      "blockHash": "0xc25dee24a61823ef41755301a1c336b791da1a6a5ce9e820679c6e0b336f9893",
      "blockNumber": "0x37ee89",
      "gasUsed": "0xc9d5",
      "effectiveGasPrice": "0x1ff9a3",
      "from": "0xc7707c2e698895f640a37fbebaa9e719cf8bd34e",
      "to": "0xf8a55a32f0ffda2e8f749417dc69aed32f095c7f",
      "contractAddress": null
    },
    {
      "status": "0x1",
      "cumulativeGasUsed": "0x456d26",
      "logs": [
        {
          "address": "0xd1a15dc832ca8c21ebb29bd3d8dcab01e3d9428c",
          "topics": [
            "0xddf252ad1be2c89b69c2b068fc378daa952ba7f163c4a11628f55a4df523b3ef",
            "0x0000000000000000000000000000000000000000000000000000000000000000",
            "0x000000000000000000000000c7707c2e698895f640a37fbebaa9e719cf8bd34e"
          ],
          "data": "0x00000000000000000000000000000000000000000000d3c21bcecceda1000000",
          "blockHash": "0xc25dee24a61823ef41755301a1c336b791da1a6a5ce9e820679c6e0b336f9893",
          "blockNumber": "0x37ee89",
          "transactionHash": "0xf9a9a5e188228834d5468cef59614c4af2ef41304b950c64efa7ec1c851ac653",
          "transactionIndex": "0xe",
          "logIndex": "0x10",
          "removed": false
        }
      ],
      "logsBloom": "0x00000000000000000000000000000000000000000000000000000000000000000000000000000000000000020000000000000000000000000000000002000000000000000000000000000008000000000000000000000000000080000000000000000000020000000000000000000800000000000000000000000010000000000000000000000000000000000000000000000004000000000000000000000000000000000100000000000000000000000000000000000000000000000000000000000042000000000000000000000000000000000000000000000000000020000000000000000000000000000000000000000000000000000000000000000000",
      "type": "0x0",
      "transactionHash": "0xf9a9a5e188228834d5468cef59614c4af2ef41304b950c64efa7ec1c851ac653",
      "transactionIndex": "0xe",
      "blockHash": "0xc25dee24a61823ef41755301a1c336b791da1a6a5ce9e820679c6e0b336f9893",
      "blockNumber": "0x37ee89",
      "gasUsed": "0x8e6b",
      "effectiveGasPrice": "0x1ff9a3",
      "from": "0xc7707c2e698895f640a37fbebaa9e719cf8bd34e",
      "to": "0xd1a15dc832ca8c21ebb29bd3d8dcab01e3d9428c",
      "contractAddress": null
    },
    {
      "status": "0x1",
      "cumulativeGasUsed": "0x45fb91",
      "logs": [
        {
          "address": "0x45aeffd8226ad5501976303127fb2fde8d56189d",
          "topics": [
            "0xddf252ad1be2c89b69c2b068fc378daa952ba7f163c4a11628f55a4df523b3ef",
            "0x0000000000000000000000000000000000000000000000000000000000000000",
            "0x000000000000000000000000c7707c2e698895f640a37fbebaa9e719cf8bd34e"
          ],
          "data": "0x00000000000000000000000000000000000000000000d3c21bcecceda1000000",
          "blockHash": "0xc25dee24a61823ef41755301a1c336b791da1a6a5ce9e820679c6e0b336f9893",
          "blockNumber": "0x37ee89",
          "transactionHash": "0xbfad334caa48d5d679af4434226cb3dc9fda6e2bc465ff0dc85fb5a7f85ab4eb",
          "transactionIndex": "0xf",
          "logIndex": "0x11",
          "removed": false
        }
      ],
      "logsBloom": "0x00000000000000000000000000000000000000000000000000000000000000000000000000000000000000020000000000020000000000000000000000000000000000010000000000000008000000000000000000000200000080000000000000000000020000000000000000000800000000000000000000000010000000000000000000000000000000000000000000000000000000000000000000000000000000000100000000000000000000000000000000000000000000000000000000000002000000000000000000000000000000000000000000000000000020000000000000000000000000000000000000000000000000000000000000000000",
      "type": "0x0",
      "transactionHash": "0xbfad334caa48d5d679af4434226cb3dc9fda6e2bc465ff0dc85fb5a7f85ab4eb",
      "transactionIndex": "0xf",
      "blockHash": "0xc25dee24a61823ef41755301a1c336b791da1a6a5ce9e820679c6e0b336f9893",
      "blockNumber": "0x37ee89",
      "gasUsed": "0x8e6b",
      "effectiveGasPrice": "0x1ff9a3",
      "from": "0xc7707c2e698895f640a37fbebaa9e719cf8bd34e",
      "to": "0x45aeffd8226ad5501976303127fb2fde8d56189d",
      "contractAddress": null
    },
    {
      "status": "0x1",
      "cumulativeGasUsed": "0x46b1ff",
      "logs": [
        {
          "address": "0xd1a15dc832ca8c21ebb29bd3d8dcab01e3d9428c",
          "topics": [
            "0x8c5be1e5ebec7d5bd14f71427d1e84f3dd0314c0f7b2291e5b200ac8c7c3b925",
            "0x000000000000000000000000c7707c2e698895f640a37fbebaa9e719cf8bd34e",
            "0x000000000000000000000000f8a55a32f0ffda2e8f749417dc69aed32f095c7f"
          ],
          "data": "0xffffffffffffffffffffffffffffffffffffffffffffffffffffffffffffffff",
          "blockHash": "0xc25dee24a61823ef41755301a1c336b791da1a6a5ce9e820679c6e0b336f9893",
          "blockNumber": "0x37ee89",
          "transactionHash": "0xd16256bcae6bd4ba0fdd6f8a91fc6a39375abebcb0f716bfd1ff3087952223df",
          "transactionIndex": "0x10",
          "logIndex": "0x12",
          "removed": false
        }
      ],
      "logsBloom": "0x00000000000000000000000020000000000000000000000000000000000000000000000000000000000010020000000000000000000000000000000202200000000000000000000000000000000000000000000000000000000080000000000000000000000000000000000000000000000000000000000000000000000000000000000000000000000000000000000000000004000000000000000000000000020000000100000000000000000000000000000000000000000000000000000000000040000000000000000000000000000000000000000000000000000000000010000000000000000000000000000000000000000000000000000000000000",
      "type": "0x0",
      "transactionHash": "0xd16256bcae6bd4ba0fdd6f8a91fc6a39375abebcb0f716bfd1ff3087952223df",
      "transactionIndex": "0x10",
      "blockHash": "0xc25dee24a61823ef41755301a1c336b791da1a6a5ce9e820679c6e0b336f9893",
      "blockNumber": "0x37ee89",
      "gasUsed": "0xb66e",
      "effectiveGasPrice": "0x1ff9a3",
      "from": "0xc7707c2e698895f640a37fbebaa9e719cf8bd34e",
      "to": "0xd1a15dc832ca8c21ebb29bd3d8dcab01e3d9428c",
      "contractAddress": null
    },
    {
      "status": "0x1",
      "cumulativeGasUsed": "0x47686d",
      "logs": [
        {
          "address": "0x45aeffd8226ad5501976303127fb2fde8d56189d",
          "topics": [
            "0x8c5be1e5ebec7d5bd14f71427d1e84f3dd0314c0f7b2291e5b200ac8c7c3b925",
            "0x000000000000000000000000c7707c2e698895f640a37fbebaa9e719cf8bd34e",
            "0x000000000000000000000000f8a55a32f0ffda2e8f749417dc69aed32f095c7f"
          ],
          "data": "0xffffffffffffffffffffffffffffffffffffffffffffffffffffffffffffffff",
          "blockHash": "0xc25dee24a61823ef41755301a1c336b791da1a6a5ce9e820679c6e0b336f9893",
          "blockNumber": "0x37ee89",
          "transactionHash": "0x96409f4d5a18a59eae928ed7343ae359cb48b64e8d6641332566ca24aa6991db",
          "transactionIndex": "0x11",
          "logIndex": "0x13",
          "removed": false
        }
      ],
      "logsBloom": "0x00000000000000000000000020000000000000000000000000000000000000000000000000000000000010020000000000020000000000000000000200200000000000010000000000000000000000000000000000000200000080000000000000000000000000000000000000000000000000000000000000000000000000000000000000000000000000000000000000000000000000000000000000000000020000000100000000000000000000000000000000000000000000000000000000000000000000000000000000000000000000000000000000000000000000000010000000000000000000000000000000000000000000000000000000000000",
      "type": "0x0",
      "transactionHash": "0x96409f4d5a18a59eae928ed7343ae359cb48b64e8d6641332566ca24aa6991db",
      "transactionIndex": "0x11",
      "blockHash": "0xc25dee24a61823ef41755301a1c336b791da1a6a5ce9e820679c6e0b336f9893",
      "blockNumber": "0x37ee89",
      "gasUsed": "0xb66e",
      "effectiveGasPrice": "0x1ff9a3",
      "from": "0xc7707c2e698895f640a37fbebaa9e719cf8bd34e",
      "to": "0x45aeffd8226ad5501976303127fb2fde8d56189d",
      "contractAddress": null
    }
  ],
  "libraries": [],
  "pending": [],
  "returns": {},
  "timestamp": 1744541005,
  "chain": 17000,
  "commit": "e4d6297"
}