{
  "transactions": [
    {
      "hash": "0x1424f79b033b243a5d06e936a0f2f8f83ae581b6aca76afd7fcd19cf55ed8525",
      "transactionType": "CREATE",
      "contractName": "SHMToken",
      "contractAddress": "0xe96cf107d55598243fe3eee956cee0f2d5c547a3",
      "function": null,
      "arguments": null,
      "transaction": {
        "from": "0xc7707c2e698895f640a37fbebaa9e719cf8bd34e",
        "gas": "0xebdd8",
        "value": "0x0",
        "input": "0x608060405234801562000010575f80fd5b50336040518060400160405280600881526020016729a426aa37b5b2b760c11b8152506040518060400160405280600381526020016253484d60e81b815250816003908162000060919062000335565b5060046200006f828262000335565b5050506001600160a01b038116620000a157604051631e4fbdf760e01b81525f60048201526024015b60405180910390fd5b620000ac81620000db565b50620000d533620000c06012600a62000510565b620000cf90620f424062000527565b6200012c565b62000557565b600580546001600160a01b038381166001600160a01b0319831681179093556040519116919082907f8be0079c531659141344cd1fd0a4f28419497f9722a3daafe3b4186f6b6457e0905f90a35050565b6001600160a01b038216620001575760405163ec442f0560e01b81525f600482015260240162000098565b620001645f838362000168565b5050565b6001600160a01b03831662000196578060025f8282546200018a919062000541565b90915550620002089050565b6001600160a01b0383165f9081526020819052604090205481811015620001ea5760405163391434e360e21b81526001600160a01b0385166004820152602481018290526044810183905260640162000098565b6001600160a01b0384165f9081526020819052604090209082900390555b6001600160a01b038216620002265760028054829003905562000244565b6001600160a01b0382165f9081526020819052604090208054820190555b816001600160a01b0316836001600160a01b03167fddf252ad1be2c89b69c2b068fc378daa952ba7f163c4a11628f55a4df523b3ef836040516200028a91815260200190565b60405180910390a3505050565b634e487b7160e01b5f52604160045260245ffd5b600181811c90821680620002c057607f821691505b602082108103620002df57634e487b7160e01b5f52602260045260245ffd5b50919050565b601f8211156200033057805f5260205f20601f840160051c810160208510156200030c5750805b601f840160051c820191505b818110156200032d575f815560010162000318565b50505b505050565b81516001600160401b0381111562000351576200035162000297565b6200036981620003628454620002ab565b84620002e5565b602080601f8311600181146200039f575f8415620003875750858301515b5f19600386901b1c1916600185901b178555620003f9565b5f85815260208120601f198616915b82811015620003cf57888601518255948401946001909101908401620003ae565b5085821015620003ed57878501515f19600388901b60f8161c191681555b505060018460011b0185555b505050505050565b634e487b7160e01b5f52601160045260245ffd5b600181815b808511156200045557815f190482111562000439576200043962000401565b808516156200044757918102915b93841c93908002906200041a565b509250929050565b5f826200046d575060016200050a565b816200047b57505f6200050a565b81600181146200049457600281146200049f57620004bf565b60019150506200050a565b60ff841115620004b357620004b362000401565b50506001821b6200050a565b5060208310610133831016604e8410600b8410161715620004e4575081810a6200050a565b620004f0838362000415565b805f190482111562000506576200050662000401565b0290505b92915050565b5f6200052060ff8416836200045d565b9392505050565b80820281158282048414176200050a576200050a62000401565b808201808211156200050a576200050a62000401565b6109ff80620005655f395ff3fe608060405234801561000f575f80fd5b50600436106100f0575f3560e01c806370a082311161009357806395d89b411161006357806395d89b41146101ef578063a9059cbb146101f7578063dd62ed3e1461020a578063f2fde38b14610242575f80fd5b806370a0823114610191578063715018a6146101b957806379cc6790146101c15780638da5cb5b146101d4575f80fd5b806323b872dd116100ce57806323b872dd14610147578063313ce5671461015a57806340c10f191461016957806342966c681461017e575f80fd5b806306fdde03146100f4578063095ea7b31461011257806318160ddd14610135575b5f80fd5b6100fc610255565b6040516101099190610842565b60405180910390f35b6101256101203660046108a9565b6102e5565b6040519015158152602001610109565b6002545b604051908152602001610109565b6101256101553660046108d1565b6102fe565b60405160128152602001610109565b61017c6101773660046108a9565b610321565b005b61017c61018c36600461090a565b610337565b61013961019f366004610921565b6001600160a01b03165f9081526020819052604090205490565b61017c610344565b61017c6101cf3660046108a9565b610357565b6005546040516001600160a01b039091168152602001610109565b6100fc61036c565b6101256102053660046108a9565b61037b565b610139610218366004610941565b6001600160a01b039182165f90815260016020908152604080832093909416825291909152205490565b61017c610250366004610921565b610388565b60606003805461026490610972565b80601f016020809104026020016040519081016040528092919081815260200182805461029090610972565b80156102db5780601f106102b2576101008083540402835291602001916102db565b820191905f5260205f20905b8154815290600101906020018083116102be57829003601f168201915b5050505050905090565b5f336102f281858561047a565b60019150505b92915050565b5f3361030b85828561048c565b610316858585610507565b506001949350505050565b610329610564565b6103338282610591565b5050565b61034133826105c5565b50565b61034c610564565b6103555f6105f9565b565b61036282338361048c565b61033382826105c5565b60606004805461026490610972565b5f336102f2818585610507565b610390610564565b6001600160a01b0381166103f75760405162461bcd60e51b8152602060048201526024808201527f4e6577206f776e65722063616e6e6f7420626520746865207a65726f206164646044820152637265737360e01b60648201526084015b60405180910390fd5b6005546001600160a01b03166001600160a01b0316816001600160a01b0316036104715760405162461bcd60e51b815260206004820152602560248201527f4e6577206f776e65722063616e6e6f74206265207468652063757272656e742060448201526437bbb732b960d91b60648201526084016103ee565b610341816105f9565b610487838383600161064a565b505050565b6001600160a01b038381165f908152600160209081526040808320938616835292905220545f19811461050157818110156104f357604051637dc7a0d960e11b81526001600160a01b038416600482015260248101829052604481018390526064016103ee565b61050184848484035f61064a565b50505050565b6001600160a01b03831661053057604051634b637e8f60e11b81525f60048201526024016103ee565b6001600160a01b0382166105595760405163ec442f0560e01b81525f60048201526024016103ee565b61048783838361071c565b6005546001600160a01b031633146103555760405163118cdaa760e01b81523360048201526024016103ee565b6001600160a01b0382166105ba5760405163ec442f0560e01b81525f60048201526024016103ee565b6103335f838361071c565b6001600160a01b0382166105ee57604051634b637e8f60e11b81525f60048201526024016103ee565b610333825f8361071c565b600580546001600160a01b038381166001600160a01b0319831681179093556040519116919082907f8be0079c531659141344cd1fd0a4f28419497f9722a3daafe3b4186f6b6457e0905f90a35050565b6001600160a01b0384166106735760405163e602df0560e01b81525f60048201526024016103ee565b6001600160a01b03831661069c57604051634a1406b160e11b81525f60048201526024016103ee565b6001600160a01b038085165f908152600160209081526040808320938716835292905220829055801561050157826001600160a01b0316846001600160a01b03167f8c5be1e5ebec7d5bd14f71427d1e84f3dd0314c0f7b2291e5b200ac8c7c3b9258460405161070e91815260200190565b60405180910390a350505050565b6001600160a01b038316610746578060025f82825461073b91906109aa565b909155506107b69050565b6001600160a01b0383165f90815260208190526040902054818110156107985760405163391434e360e21b81526001600160a01b038516600482015260248101829052604481018390526064016103ee565b6001600160a01b0384165f9081526020819052604090209082900390555b6001600160a01b0382166107d2576002805482900390556107f0565b6001600160a01b0382165f9081526020819052604090208054820190555b816001600160a01b0316836001600160a01b03167fddf252ad1be2c89b69c2b068fc378daa952ba7f163c4a11628f55a4df523b3ef8360405161083591815260200190565b60405180910390a3505050565b5f602080835283518060208501525f5b8181101561086e57858101830151858201604001528201610852565b505f604082860101526040601f19601f8301168501019250505092915050565b80356001600160a01b03811681146108a4575f80fd5b919050565b5f80604083850312156108ba575f80fd5b6108c38361088e565b946020939093013593505050565b5f805f606084860312156108e3575f80fd5b6108ec8461088e565b92506108fa6020850161088e565b9150604084013590509250925092565b5f6020828403121561091a575f80fd5b5035919050565b5f60208284031215610931575f80fd5b61093a8261088e565b9392505050565b5f8060408385031215610952575f80fd5b61095b8361088e565b91506109696020840161088e565b90509250929050565b600181811c9082168061098657607f821691505b6020821081036109a457634e487b7160e01b5f52602260045260245ffd5b50919050565b808201808211156102f857634e487b7160e01b5f52601160045260245ffdfea2646970667358221220b332632e0b57756d6c0874962a3043314cd1e9e396ac744a288ba016e36124ad64736f6c63430008180033",
        "nonce": "0x76",
        "chainId": "0x4268"
      },
      "additionalContracts": [],
      "isFixedGasLimit": false
    },
    {
      "hash": "0xf1bd6a34243cebeea35075770738cf2161d70dee158fcd90d911049860bb2532",
      "transactionType": "CREATE",
      "contractName": "SCBToken",
      "contractAddress": "0x3f5c3d41129fa54bc90e7615a0a5b453c9545aee",
      "function": null,
      "arguments": null,
      "transaction": {
        "from": "0xc7707c2e698895f640a37fbebaa9e719cf8bd34e",
        "gas": "0xebdd8",
        "value": "0x0",
        "input": "0x608060405234801562000010575f80fd5b50336040518060400160405280600881526020016729a1a12a37b5b2b760c11b8152506040518060400160405280600381526020016229a1a160e91b815250816003908162000060919062000335565b5060046200006f828262000335565b5050506001600160a01b038116620000a157604051631e4fbdf760e01b81525f60048201526024015b60405180910390fd5b620000ac81620000db565b50620000d533620000c06012600a62000510565b620000cf90620f424062000527565b6200012c565b62000557565b600580546001600160a01b038381166001600160a01b0319831681179093556040519116919082907f8be0079c531659141344cd1fd0a4f28419497f9722a3daafe3b4186f6b6457e0905f90a35050565b6001600160a01b038216620001575760405163ec442f0560e01b81525f600482015260240162000098565b620001645f838362000168565b5050565b6001600160a01b03831662000196578060025f8282546200018a919062000541565b90915550620002089050565b6001600160a01b0383165f9081526020819052604090205481811015620001ea5760405163391434e360e21b81526001600160a01b0385166004820152602481018290526044810183905260640162000098565b6001600160a01b0384165f9081526020819052604090209082900390555b6001600160a01b038216620002265760028054829003905562000244565b6001600160a01b0382165f9081526020819052604090208054820190555b816001600160a01b0316836001600160a01b03167fddf252ad1be2c89b69c2b068fc378daa952ba7f163c4a11628f55a4df523b3ef836040516200028a91815260200190565b60405180910390a3505050565b634e487b7160e01b5f52604160045260245ffd5b600181811c90821680620002c057607f821691505b602082108103620002df57634e487b7160e01b5f52602260045260245ffd5b50919050565b601f8211156200033057805f5260205f20601f840160051c810160208510156200030c5750805b601f840160051c820191505b818110156200032d575f815560010162000318565b50505b505050565b81516001600160401b0381111562000351576200035162000297565b6200036981620003628454620002ab565b84620002e5565b602080601f8311600181146200039f575f8415620003875750858301515b5f19600386901b1c1916600185901b178555620003f9565b5f85815260208120601f198616915b82811015620003cf57888601518255948401946001909101908401620003ae565b5085821015620003ed57878501515f19600388901b60f8161c191681555b505060018460011b0185555b505050505050565b634e487b7160e01b5f52601160045260245ffd5b600181815b808511156200045557815f190482111562000439576200043962000401565b808516156200044757918102915b93841c93908002906200041a565b509250929050565b5f826200046d575060016200050a565b816200047b57505f6200050a565b81600181146200049457600281146200049f57620004bf565b60019150506200050a565b60ff841115620004b357620004b362000401565b50506001821b6200050a565b5060208310610133831016604e8410600b8410161715620004e4575081810a6200050a565b620004f0838362000415565b805f190482111562000506576200050662000401565b0290505b92915050565b5f6200052060ff8416836200045d565b9392505050565b80820281158282048414176200050a576200050a62000401565b808201808211156200050a576200050a62000401565b6109ff80620005655f395ff3fe608060405234801561000f575f80fd5b50600436106100f0575f3560e01c806370a082311161009357806395d89b411161006357806395d89b41146101ef578063a9059cbb146101f7578063dd62ed3e1461020a578063f2fde38b14610242575f80fd5b806370a0823114610191578063715018a6146101b957806379cc6790146101c15780638da5cb5b146101d4575f80fd5b806323b872dd116100ce57806323b872dd14610147578063313ce5671461015a57806340c10f191461016957806342966c681461017e575f80fd5b806306fdde03146100f4578063095ea7b31461011257806318160ddd14610135575b5f80fd5b6100fc610255565b6040516101099190610842565b60405180910390f35b6101256101203660046108a9565b6102e5565b6040519015158152602001610109565b6002545b604051908152602001610109565b6101256101553660046108d1565b6102fe565b60405160128152602001610109565b61017c6101773660046108a9565b610321565b005b61017c61018c36600461090a565b610337565b61013961019f366004610921565b6001600160a01b03165f9081526020819052604090205490565b61017c610344565b61017c6101cf3660046108a9565b610357565b6005546040516001600160a01b039091168152602001610109565b6100fc61036c565b6101256102053660046108a9565b61037b565b610139610218366004610941565b6001600160a01b039182165f90815260016020908152604080832093909416825291909152205490565b61017c610250366004610921565b610388565b60606003805461026490610972565b80601f016020809104026020016040519081016040528092919081815260200182805461029090610972565b80156102db5780601f106102b2576101008083540402835291602001916102db565b820191905f5260205f20905b8154815290600101906020018083116102be57829003601f168201915b5050505050905090565b5f336102f281858561047a565b60019150505b92915050565b5f3361030b85828561048c565b610316858585610507565b506001949350505050565b610329610564565b6103338282610591565b5050565b61034133826105c5565b50565b61034c610564565b6103555f6105f9565b565b61036282338361048c565b61033382826105c5565b60606004805461026490610972565b5f336102f2818585610507565b610390610564565b6001600160a01b0381166103f75760405162461bcd60e51b8152602060048201526024808201527f4e6577206f776e65722063616e6e6f7420626520746865207a65726f206164646044820152637265737360e01b60648201526084015b60405180910390fd5b6005546001600160a01b03166001600160a01b0316816001600160a01b0316036104715760405162461bcd60e51b815260206004820152602560248201527f4e6577206f776e65722063616e6e6f74206265207468652063757272656e742060448201526437bbb732b960d91b60648201526084016103ee565b610341816105f9565b610487838383600161064a565b505050565b6001600160a01b038381165f908152600160209081526040808320938616835292905220545f19811461050157818110156104f357604051637dc7a0d960e11b81526001600160a01b038416600482015260248101829052604481018390526064016103ee565b61050184848484035f61064a565b50505050565b6001600160a01b03831661053057604051634b637e8f60e11b81525f60048201526024016103ee565b6001600160a01b0382166105595760405163ec442f0560e01b81525f60048201526024016103ee565b61048783838361071c565b6005546001600160a01b031633146103555760405163118cdaa760e01b81523360048201526024016103ee565b6001600160a01b0382166105ba5760405163ec442f0560e01b81525f60048201526024016103ee565b6103335f838361071c565b6001600160a01b0382166105ee57604051634b637e8f60e11b81525f60048201526024016103ee565b610333825f8361071c565b600580546001600160a01b038381166001600160a01b0319831681179093556040519116919082907f8be0079c531659141344cd1fd0a4f28419497f9722a3daafe3b4186f6b6457e0905f90a35050565b6001600160a01b0384166106735760405163e602df0560e01b81525f60048201526024016103ee565b6001600160a01b03831661069c57604051634a1406b160e11b81525f60048201526024016103ee565b6001600160a01b038085165f908152600160209081526040808320938716835292905220829055801561050157826001600160a01b0316846001600160a01b03167f8c5be1e5ebec7d5bd14f71427d1e84f3dd0314c0f7b2291e5b200ac8c7c3b9258460405161070e91815260200190565b60405180910390a350505050565b6001600160a01b038316610746578060025f82825461073b91906109aa565b909155506107b69050565b6001600160a01b0383165f90815260208190526040902054818110156107985760405163391434e360e21b81526001600160a01b038516600482015260248101829052604481018390526064016103ee565b6001600160a01b0384165f9081526020819052604090209082900390555b6001600160a01b0382166107d2576002805482900390556107f0565b6001600160a01b0382165f9081526020819052604090208054820190555b816001600160a01b0316836001600160a01b03167fddf252ad1be2c89b69c2b068fc378daa952ba7f163c4a11628f55a4df523b3ef8360405161083591815260200190565b60405180910390a3505050565b5f602080835283518060208501525f5b8181101561086e57858101830151858201604001528201610852565b505f604082860101526040601f19601f8301168501019250505092915050565b80356001600160a01b03811681146108a4575f80fd5b919050565b5f80604083850312156108ba575f80fd5b6108c38361088e565b946020939093013593505050565b5f805f606084860312156108e3575f80fd5b6108ec8461088e565b92506108fa6020850161088e565b9150604084013590509250925092565b5f6020828403121561091a575f80fd5b5035919050565b5f60208284031215610931575f80fd5b61093a8261088e565b9392505050565b5f8060408385031215610952575f80fd5b61095b8361088e565b91506109696020840161088e565b90509250929050565b600181811c9082168061098657607f821691505b6020821081036109a457634e487b7160e01b5f52602260045260245ffd5b50919050565b808201808211156102f857634e487b7160e01b5f52601160045260245ffdfea2646970667358221220d212374ac0238612457ada5ff9249edfafb44f3d42b68c8694535ece794dca4364736f6c63430008180033",
        "nonce": "0x77",
        "chainId": "0x4268"
      },
      "additionalContracts": [],
      "isFixedGasLimit": false
    },
    {
      "hash": "0x3ac6075d09d8bfdb658e3b83e841fbc54f2d551e949626b8a30db2a51b96082b",
      "transactionType": "CREATE",
      "contractName": "ProxyAdmin",
      "contractAddress": "0xf35a7a20d57dd4c38fbdf1b08537f530a2e05010",
      "function": null,
      "arguments": [
        "0xC7707c2E698895f640a37FBEBaa9E719cF8bD34E"
      ],
      "transaction": {
        "from": "0xc7707c2e698895f640a37fbebaa9e719cf8bd34e",
        "gas": "0x60734",
        "value": "0x0",
        "input": "0x608060405234801561000f575f80fd5b506040516104fc3803806104fc83398101604081905261002e916100bb565b806001600160a01b03811661005c57604051631e4fbdf760e01b81525f600482015260240160405180910390fd5b6100658161006c565b50506100e8565b5f80546001600160a01b038381166001600160a01b0319831681178455604051919092169283917f8be0079c531659141344cd1fd0a4f28419497f9722a3daafe3b4186f6b6457e09190a35050565b5f602082840312156100cb575f80fd5b81516001600160a01b03811681146100e1575f80fd5b9392505050565b610407806100f55f395ff3fe608060405260043610610049575f3560e01c8063715018a61461004d5780638da5cb5b146100635780639623609d1461008e578063ad3cb1cc146100a1578063f2fde38b146100de575b5f80fd5b348015610058575f80fd5b506100616100fd565b005b34801561006e575f80fd5b505f546040516001600160a01b0390911681526020015b60405180910390f35b61006161009c366004610260565b610110565b3480156100ac575f80fd5b506100d1604051806040016040528060058152602001640352e302e360dc1b81525081565b6040516100859190610372565b3480156100e9575f80fd5b506100616100f836600461038b565b61017b565b6101056101bd565b61010e5f6101e9565b565b6101186101bd565b60405163278f794360e11b81526001600160a01b03841690634f1ef28690349061014890869086906004016103a6565b5f604051808303818588803b15801561015f575f80fd5b505af1158015610171573d5f803e3d5ffd5b5050505050505050565b6101836101bd565b6001600160a01b0381166101b157604051631e4fbdf760e01b81525f60048201526024015b60405180910390fd5b6101ba816101e9565b50565b5f546001600160a01b0316331461010e5760405163118cdaa760e01b81523360048201526024016101a8565b5f80546001600160a01b038381166001600160a01b0319831681178455604051919092169283917f8be0079c531659141344cd1fd0a4f28419497f9722a3daafe3b4186f6b6457e09190a35050565b6001600160a01b03811681146101ba575f80fd5b634e487b7160e01b5f52604160045260245ffd5b5f805f60608486031215610272575f80fd5b833561027d81610238565b9250602084013561028d81610238565b9150604084013567ffffffffffffffff808211156102a9575f80fd5b818601915086601f8301126102bc575f80fd5b8135818111156102ce576102ce61024c565b604051601f8201601f19908116603f011681019083821181831017156102f6576102f661024c565b8160405282815289602084870101111561030e575f80fd5b826020860160208301375f6020848301015280955050505050509250925092565b5f81518084525f5b8181101561035357602081850181015186830182015201610337565b505f602082860101526020601f19601f83011685010191505092915050565b602081525f610384602083018461032f565b9392505050565b5f6020828403121561039b575f80fd5b813561038481610238565b6001600160a01b03831681526040602082018190525f906103c99083018461032f565b94935050505056fea2646970667358221220db7e3779e0ef220c0fabfdb0da709a3ad36213e7f413af729156ec45fece94e664736f6c63430008180033000000000000000000000000c7707c2e698895f640a37fbebaa9e719cf8bd34e",
        "nonce": "0x78",
        "chainId": "0x4268"
      },
      "additionalContracts": [],
      "isFixedGasLimit": false
    },
    {
      "hash": "0x00d2919a0f368b362bc4a03bfd762f3d5cdb2a401b14994972a7548ec33402aa",
      "transactionType": "CREATE",
      "contractName": "StakingContract",
      "contractAddress": "0x7f423d0774fe288551cbc46b8f3268ca1357cc80",
      "function": null,
      "arguments": null,
      "transaction": {
        "from": "0xc7707c2e698895f640a37fbebaa9e719cf8bd34e",
        "gas": "0x136dfe",
        "value": "0x0",
        "input": "0x608060405234801561000f575f80fd5b5061001861001d565b6100cf565b7ff0c57e16840df040f15088dc2f81fe391c3923bec73e23a9662efc9c229c6a00805468010000000000000000900460ff161561006d5760405163f92ee8a960e01b815260040160405180910390fd5b80546001600160401b03908116146100cc5780546001600160401b0319166001600160401b0390811782556040519081527fc7f505b2f371ae2175ee4913f4499e1f2633a7b5936321eed1cdaeb6115181d29060200160405180910390a15b50565b611041806100dc5f395ff3fe608060405234801561000f575f80fd5b5060043610610127575f3560e01c80638da5cb5b116100a9578063bb872b4a1161006e578063bb872b4a14610270578063e3161ddd14610283578063f2fde38b1461028b578063f7c618c11461029e578063f8b2cb4f146102b1575f80fd5b80638da5cb5b14610208578063939d6237146102385780639cfbc00214610241578063a218141b14610254578063b6b55f251461025d575f80fd5b806372f702f3116100ef57806372f702f3146101a35780638129fc1c146101cd578063817b1cd2146101d55780638ae39cac146101ec5780638aee8127146101f5575f80fd5b80631959a0021461012b5780631e9b12ef1461016b5780633ccfd60b1461018057806344aac9a714610188578063715018a61461019b575b5f80fd5b610151610139366004610efc565b60076020525f90815260409020805460019091015482565b604080519283526020830191909152015b60405180910390f35b61017e610179366004610efc565b6102c4565b005b61017e610366565b61017e610196366004610efc565b610479565b61017e610519565b5f546101b5906001600160a01b031681565b6040516001600160a01b039091168152602001610162565b61017e61052c565b6101de60045481565b604051908152602001610162565b6101de60035481565b61017e610203366004610efc565b610645565b7f9016d09d72d40fdae2fd8ceac6b6234c7706214fd39c1cd1e609a0528c199300546001600160a01b03166101b5565b6101de60065481565b6002546101b5906001600160a01b031681565b6101de60055481565b61017e61026b366004610f22565b6106e4565b61017e61027e366004610f22565b610876565b61017e6108c1565b61017e610299366004610efc565b61099b565b6001546101b5906001600160a01b031681565b6101516102bf366004610efc565b6109d8565b6102cc610a9b565b6001600160a01b03811661031f5760405162461bcd60e51b8152602060048201526015602482015274496e76616c696420746f6b656e206164647265737360581b60448201526064015b60405180910390fd5b5f80546001600160a01b0319166001600160a01b038316908117825560405190917f9904a32444ae0eb0bae2045baf588aa248f03f4fef600c18afd1d7e751614af891a250565b335f9081526007602052604090208054806103b65760405162461bcd60e51b815260206004820152601060248201526f4e6f207374616b656420746f6b656e7360801b6044820152606401610316565b6002546001600160a01b03166104065760405162461bcd60e51b815260206004820152601560248201527414995dd85c99081cdbdd5c98d9481b9bdd081cd95d605a1b6044820152606401610316565b61040e6108c1565b5f826001015464e8d4a51000600654846104289190610f4d565b6104329190610f64565b61043c9190610f83565b9050801561044e5761044e3382610af6565b8115610474575f5461046a906001600160a01b03163384610bb7565b5f80845560018401555b505050565b610481610a9b565b6001600160a01b0381166104d05760405162461bcd60e51b8152602060048201526016602482015275496e76616c696420736f75726365206164647265737360501b6044820152606401610316565b600280546001600160a01b0319166001600160a01b0383169081179091556040517f32f03954e9e3ba44f0b075ffe0c3aabcbd5fc37414ef9dab90bb321606263d78905f90a250565b610521610a9b565b61052a5f610c16565b565b7ff0c57e16840df040f15088dc2f81fe391c3923bec73e23a9662efc9c229c6a008054600160401b810460ff16159067ffffffffffffffff165f811580156105715750825b90505f8267ffffffffffffffff16600114801561058d5750303b155b90508115801561059b575080155b156105b95760405163f92ee8a960e01b815260040160405180910390fd5b845467ffffffffffffffff1916600117855583156105e357845460ff60401b1916600160401b1785555b6105ec33610c86565b6105f4610c97565b43600555831561063e57845460ff60401b19168555604051600181527fc7f505b2f371ae2175ee4913f4499e1f2633a7b5936321eed1cdaeb6115181d29060200160405180910390a15b5050505050565b61064d610a9b565b6001600160a01b03811661069b5760405162461bcd60e51b8152602060048201526015602482015274496e76616c696420746f6b656e206164647265737360581b6044820152606401610316565b600180546001600160a01b0319166001600160a01b0383169081179091556040517f2d6b04df9b7d358407d1a014f1114b064add34c19d63d395db155a7e533e967a905f90a250565b5f546001600160a01b03166107335760405162461bcd60e51b815260206004820152601560248201527414dd185ada5b99c81d1bdad95b881b9bdd081cd95d605a1b6044820152606401610316565b5f81116107825760405162461bcd60e51b815260206004820152601d60248201527f416d6f756e74206d7573742062652067726561746572207468616e20300000006044820152606401610316565b335f9081526007602052604090206107986108c1565b8054156107e4575f816001015464e8d4a51000600654845f01546107bc9190610f4d565b6107c69190610f64565b6107d09190610f83565b905080156107e2576107e23382610af6565b505b811561083d575f54610801906001600160a01b0316333085610ca7565b81815f015f8282546108139190610f96565b9091555050600654815464e8d4a510009161082d91610f4d565b6108379190610f64565b60018201555b60405182815233907f9e71bc8eea02a63969f509818f2dafb9254532904319f9dbda79b67bd34a5f3d9060200160405180910390a25050565b61087e610a9b565b6108866108c1565b60038190556040518181527f5d7c78d0ee3ce6196f90e74ed58c0ada9ac7ccc47d3aca0547ac893776f038269060200160405180910390a150565b6005544381106108ce5750565b5f80546040516370a0823160e01b81523060048201526001600160a01b03909116906370a0823190602401602060405180830381865afa158015610914573d5f803e3d5ffd5b505050506040513d601f19601f820116820180604052508101906109389190610fa9565b9050805f0361094957505043600555565b5f6109548343610f83565b90505f600354826109659190610f4d565b90508261097764e8d4a5100083610f4d565b6109819190610f64565b60065461098e9190610f96565b6006555050436005555050565b6109a3610a9b565b6001600160a01b0381166109cc57604051631e4fbdf760e01b81525f6004820152602401610316565b6109d581610c16565b50565b6001600160a01b0381165f9081526007602052604081208054600654600554600454929493924382108015610a0c57505f81115b15610a58575f610a1c8343610f83565b90505f60035482610a2d9190610f4d565b905082610a3f64e8d4a5100083610f4d565b610a499190610f64565b610a539086610f96565b945050505b8515610a8e57600184015464e8d4a51000610a738589610f4d565b610a7d9190610f64565b610a879190610f83565b9450610a92565b5f94505b50505050915091565b33610acd7f9016d09d72d40fdae2fd8ceac6b6234c7706214fd39c1cd1e609a0528c199300546001600160a01b031690565b6001600160a01b03161461052a5760405163118cdaa760e01b8152336004820152602401610316565b6001546001600160a01b0316610b455760405162461bcd60e51b815260206004820152601460248201527314995dd85c99081d1bdad95b881b9bdd081cd95d60621b6044820152606401610316565b6002546001600160a01b0316610b955760405162461bcd60e51b815260206004820152601560248201527414995dd85c99081cdbdd5c98d9481b9bdd081cd95d605a1b6044820152606401610316565b600254600154610bb3916001600160a01b0391821691168484610ca7565b5050565b6040516001600160a01b0383811660248301526044820183905261047491859182169063a9059cbb906064015b604051602081830303815290604052915060e01b6020820180516001600160e01b038381831617835250505050610ce6565b7f9016d09d72d40fdae2fd8ceac6b6234c7706214fd39c1cd1e609a0528c19930080546001600160a01b031981166001600160a01b03848116918217845560405192169182907f8be0079c531659141344cd1fd0a4f28419497f9722a3daafe3b4186f6b6457e0905f90a3505050565b610c8e610d47565b6109d581610d90565b610c9f610d47565b61052a610d98565b6040516001600160a01b038481166024830152838116604483015260648201839052610ce09186918216906323b872dd90608401610be4565b50505050565b5f610cfa6001600160a01b03841683610dc6565b905080515f14158015610d1e575080806020019051810190610d1c9190610fc0565b155b1561047457604051635274afe760e01b81526001600160a01b0384166004820152602401610316565b7ff0c57e16840df040f15088dc2f81fe391c3923bec73e23a9662efc9c229c6a0054600160401b900460ff1661052a57604051631afcd79f60e31b815260040160405180910390fd5b6109a3610d47565b610da0610d47565b60017f9b779b17422d0df92223018b32b4d1fa46e071723d6817e2486d003becc55f0055565b6060610dd383835f610ddc565b90505b92915050565b606081471015610e015760405163cd78605960e01b8152306004820152602401610316565b5f80856001600160a01b03168486604051610e1c9190610fdf565b5f6040518083038185875af1925050503d805f8114610e56576040519150601f19603f3d011682016040523d82523d5f602084013e610e5b565b606091505b5091509150610e6b868383610e77565b925050505b9392505050565b606082610e8c57610e8782610ed3565b610e70565b8151158015610ea357506001600160a01b0384163b155b15610ecc57604051639996b31560e01b81526001600160a01b0385166004820152602401610316565b5080610e70565b805115610ee35780518082602001fd5b604051630a12f52160e11b815260040160405180910390fd5b5f60208284031215610f0c575f80fd5b81356001600160a01b0381168114610e70575f80fd5b5f60208284031215610f32575f80fd5b5035919050565b634e487b7160e01b5f52601160045260245ffd5b8082028115828204841417610dd657610dd6610f39565b5f82610f7e57634e487b7160e01b5f52601260045260245ffd5b500490565b81810381811115610dd657610dd6610f39565b80820180821115610dd657610dd6610f39565b5f60208284031215610fb9575f80fd5b5051919050565b5f60208284031215610fd0575f80fd5b81518015158114610e70575f80fd5b5f82515f5b81811015610ffe5760208186018101518583015201610fe4565b505f92019182525091905056fea264697066735822122062cc1db0b5a50e0a08a889c7d06ed32610f6c99a073e5df58c23f7832ba70b5064736f6c63430008180033",
        "nonce": "0x79",
        "chainId": "0x4268"
      },
      "additionalContracts": [],
      "isFixedGasLimit": false
    },
    {
      "hash": "0x1e7be1e4e59420fdf7fc154e82ecbcf78ef192ee58ba4f3f8a46e8f0a7369e43",
      "transactionType": "CREATE",
      "contractName": "TransparentUpgradeableProxy",
      "contractAddress": "0xad09aca891fbc34c62b7530bbfffc565a3badaf2",
      "function": null,
      "arguments": [
        "0x7F423D0774FE288551Cbc46b8F3268Ca1357Cc80",
        "0xF35a7a20D57dD4c38Fbdf1b08537f530A2e05010",
        "0x8129fc1c"
      ],
      "transaction": {
        "from": "0xc7707c2e698895f640a37fbebaa9e719cf8bd34e",
        "gas": "0xec381",
        "value": "0x0",
        "input": "0x60a060405260405162000e5038038062000e508339810160408190526200002691620003bc565b828162000034828262000099565b50508160405162000045906200035a565b6001600160a01b039091168152602001604051809103905ff0801580156200006f573d5f803e3d5ffd5b506001600160a01b0316608052620000906200008a60805190565b620000fe565b505050620004b3565b620000a4826200016f565b6040516001600160a01b038316907fbc7cd75a20ee27fd9adebab32041f755214dbc6bffa90cc0225b39da2e5c2d3b905f90a2805115620000f057620000eb8282620001ee565b505050565b620000fa62000267565b5050565b7f7e644d79422f17c01e4894b5f4f588d331ebfa28653d42ae832dc59e38c9798f6200013f5f8051602062000e30833981519152546001600160a01b031690565b604080516001600160a01b03928316815291841660208301520160405180910390a16200016c8162000289565b50565b806001600160a01b03163b5f03620001aa57604051634c9c8ce360e01b81526001600160a01b03821660048201526024015b60405180910390fd5b807f360894a13ba1a3210667c828492db98dca3e2076cc3735a920a3ca505d382bbc5b80546001600160a01b0319166001600160a01b039290921691909117905550565b60605f80846001600160a01b0316846040516200020c919062000496565b5f60405180830381855af49150503d805f811462000246576040519150601f19603f3d011682016040523d82523d5f602084013e6200024b565b606091505b5090925090506200025e858383620002ca565b95945050505050565b3415620002875760405163b398979f60e01b815260040160405180910390fd5b565b6001600160a01b038116620002b457604051633173bdd160e11b81525f6004820152602401620001a1565b805f8051602062000e30833981519152620001cd565b606082620002e357620002dd8262000330565b62000329565b8151158015620002fb57506001600160a01b0384163b155b156200032657604051639996b31560e01b81526001600160a01b0385166004820152602401620001a1565b50805b9392505050565b805115620003415780518082602001fd5b604051630a12f52160e11b815260040160405180910390fd5b6104fc806200093483390190565b80516001600160a01b03811681146200037f575f80fd5b919050565b634e487b7160e01b5f52604160045260245ffd5b5f5b83811015620003b45781810151838201526020016200039a565b50505f910152565b5f805f60608486031215620003cf575f80fd5b620003da8462000368565b9250620003ea6020850162000368565b60408501519092506001600160401b038082111562000407575f80fd5b818601915086601f8301126200041b575f80fd5b81518181111562000430576200043062000384565b604051601f8201601f19908116603f011681019083821181831017156200045b576200045b62000384565b8160405282815289602084870101111562000474575f80fd5b6200048783602083016020880162000398565b80955050505050509250925092565b5f8251620004a981846020870162000398565b9190910192915050565b608051610469620004cb5f395f601001526104695ff3fe608060405261000c61000e565b005b7f00000000000000000000000000000000000000000000000000000000000000006001600160a01b0316330361007a575f356001600160e01b03191663278f794360e11b14610070576040516334ad5dbb60e21b815260040160405180910390fd5b610078610082565b565b6100786100b0565b5f806100913660048184610303565b81019061009e919061033e565b915091506100ac82826100c0565b5050565b6100786100bb61011a565b610151565b6100c98261016f565b6040516001600160a01b038316907fbc7cd75a20ee27fd9adebab32041f755214dbc6bffa90cc0225b39da2e5c2d3b905f90a28051156101125761010d82826101ea565b505050565b6100ac61025c565b5f61014c7f360894a13ba1a3210667c828492db98dca3e2076cc3735a920a3ca505d382bbc546001600160a01b031690565b905090565b365f80375f80365f845af43d5f803e80801561016b573d5ff35b3d5ffd5b806001600160a01b03163b5f036101a957604051634c9c8ce360e01b81526001600160a01b03821660048201526024015b60405180910390fd5b7f360894a13ba1a3210667c828492db98dca3e2076cc3735a920a3ca505d382bbc80546001600160a01b0319166001600160a01b0392909216919091179055565b60605f80846001600160a01b0316846040516102069190610407565b5f60405180830381855af49150503d805f811461023e576040519150601f19603f3d011682016040523d82523d5f602084013e610243565b606091505b509150915061025385838361027b565b95945050505050565b34156100785760405163b398979f60e01b815260040160405180910390fd5b6060826102905761028b826102da565b6102d3565b81511580156102a757506001600160a01b0384163b155b156102d057604051639996b31560e01b81526001600160a01b03851660048201526024016101a0565b50805b9392505050565b8051156102ea5780518082602001fd5b604051630a12f52160e11b815260040160405180910390fd5b5f8085851115610311575f80fd5b8386111561031d575f80fd5b5050820193919092039150565b634e487b7160e01b5f52604160045260245ffd5b5f806040838503121561034f575f80fd5b82356001600160a01b0381168114610365575f80fd5b9150602083013567ffffffffffffffff80821115610381575f80fd5b818501915085601f830112610394575f80fd5b8135818111156103a6576103a661032a565b604051601f8201601f19908116603f011681019083821181831017156103ce576103ce61032a565b816040528281528860208487010111156103e6575f80fd5b826020860160208301375f6020848301015280955050505050509250929050565b5f82515f5b81811015610426576020818601810151858301520161040c565b505f92019182525091905056fea2646970667358221220322d4c8e857bdf66541fc1ff3fed5021c1009e25358cc8e927e2f61408a7ff2a64736f6c63430008180033608060405234801561000f575f80fd5b506040516104fc3803806104fc83398101604081905261002e916100bb565b806001600160a01b03811661005c57604051631e4fbdf760e01b81525f600482015260240160405180910390fd5b6100658161006c565b50506100e8565b5f80546001600160a01b038381166001600160a01b0319831681178455604051919092169283917f8be0079c531659141344cd1fd0a4f28419497f9722a3daafe3b4186f6b6457e09190a35050565b5f602082840312156100cb575f80fd5b81516001600160a01b03811681146100e1575f80fd5b9392505050565b610407806100f55f395ff3fe608060405260043610610049575f3560e01c8063715018a61461004d5780638da5cb5b146100635780639623609d1461008e578063ad3cb1cc146100a1578063f2fde38b146100de575b5f80fd5b348015610058575f80fd5b506100616100fd565b005b34801561006e575f80fd5b505f546040516001600160a01b0390911681526020015b60405180910390f35b61006161009c366004610260565b610110565b3480156100ac575f80fd5b506100d1604051806040016040528060058152602001640352e302e360dc1b81525081565b6040516100859190610372565b3480156100e9575f80fd5b506100616100f836600461038b565b61017b565b6101056101bd565b61010e5f6101e9565b565b6101186101bd565b60405163278f794360e11b81526001600160a01b03841690634f1ef28690349061014890869086906004016103a6565b5f604051808303818588803b15801561015f575f80fd5b505af1158015610171573d5f803e3d5ffd5b5050505050505050565b6101836101bd565b6001600160a01b0381166101b157604051631e4fbdf760e01b81525f60048201526024015b60405180910390fd5b6101ba816101e9565b50565b5f546001600160a01b0316331461010e5760405163118cdaa760e01b81523360048201526024016101a8565b5f80546001600160a01b038381166001600160a01b0319831681178455604051919092169283917f8be0079c531659141344cd1fd0a4f28419497f9722a3daafe3b4186f6b6457e09190a35050565b6001600160a01b03811681146101ba575f80fd5b634e487b7160e01b5f52604160045260245ffd5b5f805f60608486031215610272575f80fd5b833561027d81610238565b9250602084013561028d81610238565b9150604084013567ffffffffffffffff808211156102a9575f80fd5b818601915086601f8301126102bc575f80fd5b8135818111156102ce576102ce61024c565b604051601f8201601f19908116603f011681019083821181831017156102f6576102f661024c565b8160405282815289602084870101111561030e575f80fd5b826020860160208301375f6020848301015280955050505050509250925092565b5f81518084525f5b8181101561035357602081850181015186830182015201610337565b505f602082860101526020601f19601f83011685010191505092915050565b602081525f610384602083018461032f565b9392505050565b5f6020828403121561039b575f80fd5b813561038481610238565b6001600160a01b03831681526040602082018190525f906103c99083018461032f565b94935050505056fea2646970667358221220db7e3779e0ef220c0fabfdb0da709a3ad36213e7f413af729156ec45fece94e664736f6c63430008180033b53127684a568b3173ae13b9f8a6016e243e63b6e8ee1178d6a717850b5d61030000000000000000000000007f423d0774fe288551cbc46b8f3268ca1357cc80000000000000000000000000f35a7a20d57dd4c38fbdf1b08537f530a2e05010000000000000000000000000000000000000000000000000000000000000006000000000000000000000000000000000000000000000000000000000000000048129fc1c00000000000000000000000000000000000000000000000000000000",
        "nonce": "0x7a",
        "chainId": "0x4268"
      },
      "additionalContracts": [
        {
          "transactionType": "CREATE",
          "address": "0x7e3ea9aebfaf709c160de90f706cca22f4ee4f04",
          "initCode": "0x608060405234801561000f575f80fd5b506040516104fc3803806104fc83398101604081905261002e916100bb565b806001600160a01b03811661005c57604051631e4fbdf760e01b81525f600482015260240160405180910390fd5b6100658161006c565b50506100e8565b5f80546001600160a01b038381166001600160a01b0319831681178455604051919092169283917f8be0079c531659141344cd1fd0a4f28419497f9722a3daafe3b4186f6b6457e09190a35050565b5f602082840312156100cb575f80fd5b81516001600160a01b03811681146100e1575f80fd5b9392505050565b610407806100f55f395ff3fe608060405260043610610049575f3560e01c8063715018a61461004d5780638da5cb5b146100635780639623609d1461008e578063ad3cb1cc146100a1578063f2fde38b146100de575b5f80fd5b348015610058575f80fd5b506100616100fd565b005b34801561006e575f80fd5b505f546040516001600160a01b0390911681526020015b60405180910390f35b61006161009c366004610260565b610110565b3480156100ac575f80fd5b506100d1604051806040016040528060058152602001640352e302e360dc1b81525081565b6040516100859190610372565b3480156100e9575f80fd5b506100616100f836600461038b565b61017b565b6101056101bd565b61010e5f6101e9565b565b6101186101bd565b60405163278f794360e11b81526001600160a01b03841690634f1ef28690349061014890869086906004016103a6565b5f604051808303818588803b15801561015f575f80fd5b505af1158015610171573d5f803e3d5ffd5b5050505050505050565b6101836101bd565b6001600160a01b0381166101b157604051631e4fbdf760e01b81525f60048201526024015b60405180910390fd5b6101ba816101e9565b50565b5f546001600160a01b0316331461010e5760405163118cdaa760e01b81523360048201526024016101a8565b5f80546001600160a01b038381166001600160a01b0319831681178455604051919092169283917f8be0079c531659141344cd1fd0a4f28419497f9722a3daafe3b4186f6b6457e09190a35050565b6001600160a01b03811681146101ba575f80fd5b634e487b7160e01b5f52604160045260245ffd5b5f805f60608486031215610272575f80fd5b833561027d81610238565b9250602084013561028d81610238565b9150604084013567ffffffffffffffff808211156102a9575f80fd5b818601915086601f8301126102bc575f80fd5b8135818111156102ce576102ce61024c565b604051601f8201601f19908116603f011681019083821181831017156102f6576102f661024c565b8160405282815289602084870101111561030e575f80fd5b826020860160208301375f6020848301015280955050505050509250925092565b5f81518084525f5b8181101561035357602081850181015186830182015201610337565b505f602082860101526020601f19601f83011685010191505092915050565b602081525f610384602083018461032f565b9392505050565b5f6020828403121561039b575f80fd5b813561038481610238565b6001600160a01b03831681526040602082018190525f906103c99083018461032f565b94935050505056fea2646970667358221220db7e3779e0ef220c0fabfdb0da709a3ad36213e7f413af729156ec45fece94e664736f6c63430008180033000000000000000000000000f35a7a20d57dd4c38fbdf1b08537f530a2e05010"
        }
      ],
      "isFixedGasLimit": false
    },
    {
      "hash": "0x3a927562b0cd30e9a851ff08527eae8ea5cbcbdb47795db6edeb924ae5e68ede",
      "transactionType": "CALL",
      "contractName": "TransparentUpgradeableProxy",
      "contractAddress": "0xad09aca891fbc34c62b7530bbfffc565a3badaf2",
      "function": null,
      "arguments": null,
      "transaction": {
        "from": "0xc7707c2e698895f640a37fbebaa9e719cf8bd34e",
        "to": "0xad09aca891fbc34c62b7530bbfffc565a3badaf2",
        "gas": "0x12a50",
        "value": "0x0",
        "input": "0x1e9b12ef000000000000000000000000e96cf107d55598243fe3eee956cee0f2d5c547a3",
        "nonce": "0x7b",
        "chainId": "0x4268"
      },
      "additionalContracts": [],
      "isFixedGasLimit": false
    },
    {
      "hash": "0x8b05b000c97c8966c9246d23fdb8ca24f6b983b5386398429b58def7ed4e880a",
      "transactionType": "CALL",
      "contractName": "TransparentUpgradeableProxy",
      "contractAddress": "0xad09aca891fbc34c62b7530bbfffc565a3badaf2",
      "function": null,
      "arguments": null,
      "transaction": {
        "from": "0xc7707c2e698895f640a37fbebaa9e719cf8bd34e",
        "to": "0xad09aca891fbc34c62b7530bbfffc565a3badaf2",
        "gas": "0x11a1a",
        "value": "0x0",
        "input": "0x8aee81270000000000000000000000003f5c3d41129fa54bc90e7615a0a5b453c9545aee",
        "nonce": "0x7c",
        "chainId": "0x4268"
      },
      "additionalContracts": [],
      "isFixedGasLimit": false
    },
    {
      "hash": "0xd59fc13d5c7badcb9efeea6fae55e67bb664b43bec58e6904e70241896ed043a",
      "transactionType": "CALL",
      "contractName": "TransparentUpgradeableProxy",
      "contractAddress": "0xad09aca891fbc34c62b7530bbfffc565a3badaf2",
      "function": null,
      "arguments": null,
      "transaction": {
        "from": "0xc7707c2e698895f640a37fbebaa9e719cf8bd34e",
        "to": "0xad09aca891fbc34c62b7530bbfffc565a3badaf2",
        "gas": "0x12a95",
        "value": "0x0",
        "input": "0x44aac9a7000000000000000000000000c7707c2e698895f640a37fbebaa9e719cf8bd34e",
        "nonce": "0x7d",
        "chainId": "0x4268"
      },
      "additionalContracts": [],
      "isFixedGasLimit": false
    },
    {
      "hash": "0x64afe821c1f079fd2ef9fb1589e5dcf00fafb735d68d5bd52935ecad6c878e17",
      "transactionType": "CALL",
      "contractName": "TransparentUpgradeableProxy",
      "contractAddress": "0xad09aca891fbc34c62b7530bbfffc565a3badaf2",
      "function": null,
      "arguments": null,
      "transaction": {
        "from": "0xc7707c2e698895f640a37fbebaa9e719cf8bd34e",
        "to": "0xad09aca891fbc34c62b7530bbfffc565a3badaf2",
        "gas": "0x12322",
        "value": "0x0",
        "input": "0xbb872b4a0000000000000000000000000000000000000000000000000de0b6b3a7640000",
        "nonce": "0x7e",
        "chainId": "0x4268"
      },
      "additionalContracts": [],
      "isFixedGasLimit": false
    },
    {
      "hash": "0xa02f08af4b63bc8f167f39db3c8214df8fd26383d5b6a579e8ef41111a50db11",
      "transactionType": "CALL",
      "contractName": "SHMToken",
      "contractAddress": "0xe96cf107d55598243fe3eee956cee0f2d5c547a3",
      "function": "mint(address,uint256)",
      "arguments": [
        "0xC7707c2E698895f640a37FBEBaa9E719cF8bD34E",
        "1000000000000000000000000"
      ],
      "transaction": {
        "from": "0xc7707c2e698895f640a37fbebaa9e719cf8bd34e",
        "to": "0xe96cf107d55598243fe3eee956cee0f2d5c547a3",
        "gas": "0xd048",
        "value": "0x0",
        "input": "0x40c10f19000000000000000000000000c7707c2e698895f640a37fbebaa9e719cf8bd34e00000000000000000000000000000000000000000000d3c21bcecceda1000000",
        "nonce": "0x7f",
        "chainId": "0x4268"
      },
      "additionalContracts": [],
      "isFixedGasLimit": false
    },
    {
      "hash": "0x02a89d71adf277acc6536d06a2f52a9e154d18f14050cc4a9783ea549a32e99f",
      "transactionType": "CALL",
      "contractName": "SCBToken",
      "contractAddress": "0x3f5c3d41129fa54bc90e7615a0a5b453c9545aee",
      "function": "mint(address,uint256)",
      "arguments": [
        "0xC7707c2E698895f640a37FBEBaa9E719cF8bD34E",
        "1000000000000000000000000"
      ],
      "transaction": {
        "from": "0xc7707c2e698895f640a37fbebaa9e719cf8bd34e",
        "to": "0x3f5c3d41129fa54bc90e7615a0a5b453c9545aee",
        "gas": "0xd048",
        "value": "0x0",
        "input": "0x40c10f19000000000000000000000000c7707c2e698895f640a37fbebaa9e719cf8bd34e00000000000000000000000000000000000000000000d3c21bcecceda1000000",
        "nonce": "0x80",
        "chainId": "0x4268"
      },
      "additionalContracts": [],
      "isFixedGasLimit": false
    },
    {
      "hash": "0x7a22e859f7056185b5250677c270c7688e215ca971da498960df78685683429c",
      "transactionType": "CALL",
      "contractName": "SHMToken",
      "contractAddress": "0xe96cf107d55598243fe3eee956cee0f2d5c547a3",
      "function": "approve(address,uint256)",
      "arguments": [
        "0xad09acA891Fbc34C62B7530bBfFfC565A3bAdAF2",
        "115792089237316195423570985008687907853269984665640564039457584007913129639935"
      ],
      "transaction": {
        "from": "0xc7707c2e698895f640a37fbebaa9e719cf8bd34e",
        "to": "0xe96cf107d55598243fe3eee956cee0f2d5c547a3",
        "gas": "0xfbfa",
        "value": "0x0",
        "input": "0x095ea7b3000000000000000000000000ad09aca891fbc34c62b7530bbfffc565a3badaf2ffffffffffffffffffffffffffffffffffffffffffffffffffffffffffffffff",
        "nonce": "0x81",
        "chainId": "0x4268"
      },
      "additionalContracts": [],
      "isFixedGasLimit": false
    },
    {
      "hash": "0xfb01bab3ac5001c1a400f070418904baae75792b550eabb3109aa027fb292ccd",
      "transactionType": "CALL",
      "contractName": "SCBToken",
      "contractAddress": "0x3f5c3d41129fa54bc90e7615a0a5b453c9545aee",
      "function": "approve(address,uint256)",
      "arguments": [
        "0xad09acA891Fbc34C62B7530bBfFfC565A3bAdAF2",
        "115792089237316195423570985008687907853269984665640564039457584007913129639935"
      ],
      "transaction": {
        "from": "0xc7707c2e698895f640a37fbebaa9e719cf8bd34e",
        "to": "0x3f5c3d41129fa54bc90e7615a0a5b453c9545aee",
        "gas": "0xfbfa",
        "value": "0x0",
        "input": "0x095ea7b3000000000000000000000000ad09aca891fbc34c62b7530bbfffc565a3badaf2ffffffffffffffffffffffffffffffffffffffffffffffffffffffffffffffff",
        "nonce": "0x82",
        "chainId": "0x4268"
      },
      "additionalContracts": [],
      "isFixedGasLimit": false
    }
  ],
  "receipts": [
    {
      "status": "0x1",
      "cumulativeGasUsed": "0x268f8d",
      "logs": [
        {
          "address": "0xe96cf107d55598243fe3eee956cee0f2d5c547a3",
          "topics": [
            "0x8be0079c531659141344cd1fd0a4f28419497f9722a3daafe3b4186f6b6457e0",
            "0x0000000000000000000000000000000000000000000000000000000000000000",
            "0x000000000000000000000000c7707c2e698895f640a37fbebaa9e719cf8bd34e"
          ],
          "data": "0x",
          "blockHash": "0x3dc366f0b4011cbc95c9ec8c1d8644aecbb5ea8b77e6c1e99bd9a33a823d3106",
          "blockNumber": "0x37f0aa",
          "transactionHash": "0x1424f79b033b243a5d06e936a0f2f8f83ae581b6aca76afd7fcd19cf55ed8525",
          "transactionIndex": "0xa",
          "logIndex": "0x11",
          "removed": false
        },
        {
          "address": "0xe96cf107d55598243fe3eee956cee0f2d5c547a3",
          "topics": [
            "0xddf252ad1be2c89b69c2b068fc378daa952ba7f163c4a11628f55a4df523b3ef",
            "0x0000000000000000000000000000000000000000000000000000000000000000",
            "0x000000000000000000000000c7707c2e698895f640a37fbebaa9e719cf8bd34e"
          ],
          "data": "0x00000000000000000000000000000000000000000000d3c21bcecceda1000000",
          "blockHash": "0x3dc366f0b4011cbc95c9ec8c1d8644aecbb5ea8b77e6c1e99bd9a33a823d3106",
          "blockNumber": "0x37f0aa",
          "transactionHash": "0x1424f79b033b243a5d06e936a0f2f8f83ae581b6aca76afd7fcd19cf55ed8525",
          "transactionIndex": "0xa",
          "logIndex": "0x12",
          "removed": false
        }
      ],
      "logsBloom": "0x00000000000000000000000000000000000000000000000000800000000000000000000020000000000000020000004000000000000000000000000000000000000000000000000000000008000000000001000000000000000080000000000000000000020000000000000000000800000000000000000000000010000000400000000000000000000000000000000000000000000000000000000000000000000000000100000000000000000000000000000000000000000000000000000000000002000000000000000000000000000000000000000080000000000020000000000000000000000000000000000000000000000000000000000000000000",
      "type": "0x0",
      "transactionHash": "0x1424f79b033b243a5d06e936a0f2f8f83ae581b6aca76afd7fcd19cf55ed8525",
      "transactionIndex": "0xa",
      "blockHash": "0x3dc366f0b4011cbc95c9ec8c1d8644aecbb5ea8b77e6c1e99bd9a33a823d3106",
      "blockNumber": "0x37f0aa",
      "gasUsed": "0xb56f5",
      "effectiveGasPrice": "0x1ff99f",
      "from": "0xc7707c2e698895f640a37fbebaa9e719cf8bd34e",
      "to": null,
      "contractAddress": "0xe96cf107d55598243fe3eee956cee0f2d5c547a3"
    },
    {
      "status": "0x1",
      "cumulativeGasUsed": "0x31e682",
      "logs": [
        {
          "address": "0x3f5c3d41129fa54bc90e7615a0a5b453c9545aee",
          "topics": [
            "0x8be0079c531659141344cd1fd0a4f28419497f9722a3daafe3b4186f6b6457e0",
            "0x0000000000000000000000000000000000000000000000000000000000000000",
            "0x000000000000000000000000c7707c2e698895f640a37fbebaa9e719cf8bd34e"
          ],
          "data": "0x",
          "blockHash": "0x3dc366f0b4011cbc95c9ec8c1d8644aecbb5ea8b77e6c1e99bd9a33a823d3106",
          "blockNumber": "0x37f0aa",
          "transactionHash": "0xf1bd6a34243cebeea35075770738cf2161d70dee158fcd90d911049860bb2532",
          "transactionIndex": "0xb",
          "logIndex": "0x13",
          "removed": false
        },
        {
          "address": "0x3f5c3d41129fa54bc90e7615a0a5b453c9545aee",
          "topics": [
            "0xddf252ad1be2c89b69c2b068fc378daa952ba7f163c4a11628f55a4df523b3ef",
            "0x0000000000000000000000000000000000000000000000000000000000000000",
            "0x000000000000000000000000c7707c2e698895f640a37fbebaa9e719cf8bd34e"
          ],
          "data": "0x00000000000000000000000000000000000000000000d3c21bcecceda1000000",
          "blockHash": "0x3dc366f0b4011cbc95c9ec8c1d8644aecbb5ea8b77e6c1e99bd9a33a823d3106",
          "blockNumber": "0x37f0aa",
          "transactionHash": "0xf1bd6a34243cebeea35075770738cf2161d70dee158fcd90d911049860bb2532",
          "transactionIndex": "0xb",
          "logIndex": "0x14",
          "removed": false
        }
      ],
      "logsBloom": "0x00000000080000000000000000000000000000000000000000800000000000000000000000000000000000020000000000000000000000000000000000000000000000000000000000000008000000000081000000000000000080000000000000000000020000000000000000000800000000000000000000000010000000400000000000000000000000000000000000000000000000000000000000000000000000000100000000000000000000000000000000000000000000000000000000000002000000000000000000000000000000080000000000000000000020000000000000000000000000000000000000000000000000000000000000000000",
      "type": "0x0",
      "transactionHash": "0xf1bd6a34243cebeea35075770738cf2161d70dee158fcd90d911049860bb2532",
      "transactionIndex": "0xb",
      "blockHash": "0x3dc366f0b4011cbc95c9ec8c1d8644aecbb5ea8b77e6c1e99bd9a33a823d3106",
      "blockNumber": "0x37f0aa",
      "gasUsed": "0xb56f5",
      "effectiveGasPrice": "0x1ff99f",
      "from": "0xc7707c2e698895f640a37fbebaa9e719cf8bd34e",
      "to": null,
      "contractAddress": "0x3f5c3d41129fa54bc90e7615a0a5b453c9545aee"
    },
    {
      "status": "0x1",
      "cumulativeGasUsed": "0x368997",
      "logs": [
        {
          "address": "0xf35a7a20d57dd4c38fbdf1b08537f530a2e05010",
          "topics": [
            "0x8be0079c531659141344cd1fd0a4f28419497f9722a3daafe3b4186f6b6457e0",
            "0x0000000000000000000000000000000000000000000000000000000000000000",
            "0x000000000000000000000000c7707c2e698895f640a37fbebaa9e719cf8bd34e"
          ],
          "data": "0x",
          "blockHash": "0x3dc366f0b4011cbc95c9ec8c1d8644aecbb5ea8b77e6c1e99bd9a33a823d3106",
          "blockNumber": "0x37f0aa",
          "transactionHash": "0x3ac6075d09d8bfdb658e3b83e841fbc54f2d551e949626b8a30db2a51b96082b",
          "transactionIndex": "0xc",
          "logIndex": "0x15",
          "removed": false
        }
      ],
      "logsBloom": "0x00000000000000000000000000000000000000000000000000800000000000000000000000000000000000020000000000000000000000000000000000000000000000000000000000000000000000000001000000000000000080000000000000000000020000000000000000000800000000000000000000000000000000400000000000000000000000000000000000000000000000000000000000000010000000000100000000000000000000000000000000000000000000002000000001000000000000000000000000000000000000000000000000000000000020000000000000000000000000000000000000000000000000000000000000000000",
      "type": "0x0",
      "transactionHash": "0x3ac6075d09d8bfdb658e3b83e841fbc54f2d551e949626b8a30db2a51b96082b",
      "transactionIndex": "0xc",
      "blockHash": "0x3dc366f0b4011cbc95c9ec8c1d8644aecbb5ea8b77e6c1e99bd9a33a823d3106",
      "blockNumber": "0x37f0aa",
      "gasUsed": "0x4a315",
      "effectiveGasPrice": "0x1ff99f",
      "from": "0xc7707c2e698895f640a37fbebaa9e719cf8bd34e",
      "to": null,
      "contractAddress": "0xf35a7a20d57dd4c38fbdf1b08537f530a2e05010"
    },
    {
      "status": "0x1",
      "cumulativeGasUsed": "0x457bbd",
      "logs": [
        {
          "address": "0x7f423d0774fe288551cbc46b8f3268ca1357cc80",
          "topics": [
            "0xc7f505b2f371ae2175ee4913f4499e1f2633a7b5936321eed1cdaeb6115181d2"
          ],
          "data": "0x000000000000000000000000000000000000000000000000ffffffffffffffff",
          "blockHash": "0x3dc366f0b4011cbc95c9ec8c1d8644aecbb5ea8b77e6c1e99bd9a33a823d3106",
          "blockNumber": "0x37f0aa",
          "transactionHash": "0x00d2919a0f368b362bc4a03bfd762f3d5cdb2a401b14994972a7548ec33402aa",
          "transactionIndex": "0xd",
          "logIndex": "0x16",
          "removed": false
        }
      ],
      "logsBloom": "0x00000000000000000000000000000000000000000000000000000000000000010000000000000000000000000000000000000000000000000000000000000000000000000000000000000000000000000000000000000000000000000000000000000000000000000000000000000000000000000000000000000000000000000000000000000000000900000000000000000002000080000000000000000000000000000000000000000000000000000000000000000000000000000000000000000000000000000000000000000000000000000004000000000000000000000000000000000000000000000000000000000000000000000000000000000000",
      "type": "0x0",
      "transactionHash": "0x00d2919a0f368b362bc4a03bfd762f3d5cdb2a401b14994972a7548ec33402aa",
      "transactionIndex": "0xd",
      "blockHash": "0x3dc366f0b4011cbc95c9ec8c1d8644aecbb5ea8b77e6c1e99bd9a33a823d3106",
      "blockNumber": "0x37f0aa",
      "gasUsed": "0xef226",
      "effectiveGasPrice": "0x1ff99f",
      "from": "0xc7707c2e698895f640a37fbebaa9e719cf8bd34e",
      "to": null,
      "contractAddress": "0x7f423d0774fe288551cbc46b8f3268ca1357cc80"
    },
    {
      "status": "0x1",
      "cumulativeGasUsed": "0x50d70d",
      "logs": [
        {
          "address": "0xad09aca891fbc34c62b7530bbfffc565a3badaf2",
          "topics": [
            "0xbc7cd75a20ee27fd9adebab32041f755214dbc6bffa90cc0225b39da2e5c2d3b",
            "0x0000000000000000000000007f423d0774fe288551cbc46b8f3268ca1357cc80"
          ],
          "data": "0x",
          "blockHash": "0x3dc366f0b4011cbc95c9ec8c1d8644aecbb5ea8b77e6c1e99bd9a33a823d3106",
          "blockNumber": "0x37f0aa",
          "transactionHash": "0x1e7be1e4e59420fdf7fc154e82ecbcf78ef192ee58ba4f3f8a46e8f0a7369e43",
          "transactionIndex": "0xe",
          "logIndex": "0x17",
          "removed": false
        },
        {
          "address": "0xad09aca891fbc34c62b7530bbfffc565a3badaf2",
          "topics": [
            "0x8be0079c531659141344cd1fd0a4f28419497f9722a3daafe3b4186f6b6457e0",
            "0x0000000000000000000000000000000000000000000000000000000000000000",
            "0x000000000000000000000000c7707c2e698895f640a37fbebaa9e719cf8bd34e"
          ],
          "data": "0x",
          "blockHash": "0x3dc366f0b4011cbc95c9ec8c1d8644aecbb5ea8b77e6c1e99bd9a33a823d3106",
          "blockNumber": "0x37f0aa",
          "transactionHash": "0x1e7be1e4e59420fdf7fc154e82ecbcf78ef192ee58ba4f3f8a46e8f0a7369e43",
          "transactionIndex": "0xe",
          "logIndex": "0x18",
          "removed": false
        },
        {
          "address": "0xad09aca891fbc34c62b7530bbfffc565a3badaf2",
          "topics": [
            "0xc7f505b2f371ae2175ee4913f4499e1f2633a7b5936321eed1cdaeb6115181d2"
          ],
          "data": "0x0000000000000000000000000000000000000000000000000000000000000001",
          "blockHash": "0x3dc366f0b4011cbc95c9ec8c1d8644aecbb5ea8b77e6c1e99bd9a33a823d3106",
          "blockNumber": "0x37f0aa",
          "transactionHash": "0x1e7be1e4e59420fdf7fc154e82ecbcf78ef192ee58ba4f3f8a46e8f0a7369e43",
          "transactionIndex": "0xe",
          "logIndex": "0x19",
          "removed": false
        },
        {
          "address": "0x7e3ea9aebfaf709c160de90f706cca22f4ee4f04",
          "topics": [
            "0x8be0079c531659141344cd1fd0a4f28419497f9722a3daafe3b4186f6b6457e0",
            "0x0000000000000000000000000000000000000000000000000000000000000000",
            "0x000000000000000000000000f35a7a20d57dd4c38fbdf1b08537f530a2e05010"
          ],
          "data": "0x",
          "blockHash": "0x3dc366f0b4011cbc95c9ec8c1d8644aecbb5ea8b77e6c1e99bd9a33a823d3106",
          "blockNumber": "0x37f0aa",
          "transactionHash": "0x1e7be1e4e59420fdf7fc154e82ecbcf78ef192ee58ba4f3f8a46e8f0a7369e43",
          "transactionIndex": "0xe",
          "logIndex": "0x1a",
          "removed": false
        },
        {
          "address": "0xad09aca891fbc34c62b7530bbfffc565a3badaf2",
          "topics": [
            "0x7e644d79422f17c01e4894b5f4f588d331ebfa28653d42ae832dc59e38c9798f"
          ],
          "data": "0x00000000000000000000000000000000000000000000000000000000000000000000000000000000000000007e3ea9aebfaf709c160de90f706cca22f4ee4f04",
          "blockHash": "0x3dc366f0b4011cbc95c9ec8c1d8644aecbb5ea8b77e6c1e99bd9a33a823d3106",
          "blockNumber": "0x37f0aa",
          "transactionHash": "0x1e7be1e4e59420fdf7fc154e82ecbcf78ef192ee58ba4f3f8a46e8f0a7369e43",
          "transactionIndex": "0xe",
          "logIndex": "0x1b",
          "removed": false
        }
      ],
      "logsBloom": "0x00000000000000000000000000000000401008800000000010800000000000080000000000000000000000020000000000000000000000000000000000000000000000000000000000000000080002000001100000000000000080000000000000000200020000000000000000000800000000800000000000000000000000400002000000000000000800000000000000000000000080000000000000800000000000000100000000000000000000000000000000000000000000000000000000000020000000000000000000000000000000000404000000000000000020080000000000000000000000000000020000000000000000000000000000000000",
      "type": "0x0",
      "transactionHash": "0x1e7be1e4e59420fdf7fc154e82ecbcf78ef192ee58ba4f3f8a46e8f0a7369e43",
      "transactionIndex": "0xe",
      "blockHash": "0x3dc366f0b4011cbc95c9ec8c1d8644aecbb5ea8b77e6c1e99bd9a33a823d3106",
      "blockNumber": "0x37f0aa",
      "gasUsed": "0xb5b50",
      "effectiveGasPrice": "0x1ff99f",
      "from": "0xc7707c2e698895f640a37fbebaa9e719cf8bd34e",
      "to": null,
      "contractAddress": "0xad09aca891fbc34c62b7530bbfffc565a3badaf2"
    },
    {
      "status": "0x1",
      "cumulativeGasUsed": "0x51a307",
      "logs": [
        {
          "address": "0xad09aca891fbc34c62b7530bbfffc565a3badaf2",
          "topics": [
            "0x9904a32444ae0eb0bae2045baf588aa248f03f4fef600c18afd1d7e751614af8",
            "0x000000000000000000000000e96cf107d55598243fe3eee956cee0f2d5c547a3"
          ],
          "data": "0x",
          "blockHash": "0x3dc366f0b4011cbc95c9ec8c1d8644aecbb5ea8b77e6c1e99bd9a33a823d3106",
          "blockNumber": "0x37f0aa",
          "transactionHash": "0x3a927562b0cd30e9a851ff08527eae8ea5cbcbdb47795db6edeb924ae5e68ede",
          "transactionIndex": "0xf",
          "logIndex": "0x1c",
          "removed": false
        }
      ],
      "logsBloom": "0x00000000000000000000000000000000000000800000000000000000000000000000000000000000000000000000000000000000000000000000000000000000008000000000000000008000000000000000100000000000000000000000400000000000000000000000000000000000000000000080000000000000000000000000000000000000000000000000000000000000000000000000000000000000000000000000000000000000000000000008000000000000000000000000000000000000000000000000000000000000000000000000000000000000000000000000000000000000000000000000020040000000000000000000000000000000",
      "type": "0x0",
      "transactionHash": "0x3a927562b0cd30e9a851ff08527eae8ea5cbcbdb47795db6edeb924ae5e68ede",
      "transactionIndex": "0xf",
      "blockHash": "0x3dc366f0b4011cbc95c9ec8c1d8644aecbb5ea8b77e6c1e99bd9a33a823d3106",
      "blockNumber": "0x37f0aa",
      "gasUsed": "0xcbfa",
      "effectiveGasPrice": "0x1ff99f",
      "from": "0xc7707c2e698895f640a37fbebaa9e719cf8bd34e",
      "to": "0xad09aca891fbc34c62b7530bbfffc565a3badaf2",
      "contractAddress": null
    },
    {
      "status": "0x1",
      "cumulativeGasUsed": "0x526f45",
      "logs": [
        {
          "address": "0xad09aca891fbc34c62b7530bbfffc565a3badaf2",
          "topics": [
            "0x2d6b04df9b7d358407d1a014f1114b064add34c19d63d395db155a7e533e967a",
            "0x0000000000000000000000003f5c3d41129fa54bc90e7615a0a5b453c9545aee"
          ],
          "data": "0x",
          "blockHash": "0x3dc366f0b4011cbc95c9ec8c1d8644aecbb5ea8b77e6c1e99bd9a33a823d3106",
          "blockNumber": "0x37f0aa",
          "transactionHash": "0x8b05b000c97c8966c9246d23fdb8ca24f6b983b5386398429b58def7ed4e880a",
          "transactionIndex": "0x10",
          "logIndex": "0x1d",
          "removed": false
        }
      ],
      "logsBloom": "0x00000000000000000000000000000400000000800000000000000000000000000000000000000000000000000000000000000000000000000000000000000000000000000000004000000000000000000000102000000000000000000000000000000000000000000000004000000000000000000000000000000000000000000000000000000000000000000000000000000000000000000000000000000000000000000000000000000000000000000000000000000000000000000000000000000000000000000000000000000000000000000000000000000000000000000000000000000000000000000000020000000080000400000000000000000000",
      "type": "0x0",
      "transactionHash": "0x8b05b000c97c8966c9246d23fdb8ca24f6b983b5386398429b58def7ed4e880a",
      "transactionIndex": "0x10",
      "blockHash": "0x3dc366f0b4011cbc95c9ec8c1d8644aecbb5ea8b77e6c1e99bd9a33a823d3106",
      "blockNumber": "0x37f0aa",
      "gasUsed": "0xcc3e",
      "effectiveGasPrice": "0x1ff99f",
      "from": "0xc7707c2e698895f640a37fbebaa9e719cf8bd34e",
      "to": "0xad09aca891fbc34c62b7530bbfffc565a3badaf2",
      "contractAddress": null
    },
    {
      "status": "0x1",
      "cumulativeGasUsed": "0x533b6e",
      "logs": [
        {
          "address": "0xad09aca891fbc34c62b7530bbfffc565a3badaf2",
          "topics": [
            "0x32f03954e9e3ba44f0b075ffe0c3aabcbd5fc37414ef9dab90bb321606263d78",
            "0x000000000000000000000000c7707c2e698895f640a37fbebaa9e719cf8bd34e"
          ],
          "data": "0x",
          "blockHash": "0x3dc366f0b4011cbc95c9ec8c1d8644aecbb5ea8b77e6c1e99bd9a33a823d3106",
          "blockNumber": "0x37f0aa",
          "transactionHash": "0xd59fc13d5c7badcb9efeea6fae55e67bb664b43bec58e6904e70241896ed043a",
          "transactionIndex": "0x11",
          "logIndex": "0x1e",
          "removed": false
        }
      ],
      "logsBloom": "0x00000000000000000000000000000040000000800000000000000000000000000000000000000000000000020000000000000000000000000000000000000000000000000000000000000000000000000000100000000000000080000000000000000000000000000000000000000000000000000000000000000000000000000000000000000000000000000000000000000000000000000000000000000000000000000100000000000000000000000000000000000000000000000000000000000000000000000000000000000040000000000000000000000000000000000000000000000000400000000000020000000000000000000000000000000000",
      "type": "0x0",
      "transactionHash": "0xd59fc13d5c7badcb9efeea6fae55e67bb664b43bec58e6904e70241896ed043a",
      "transactionIndex": "0x11",
      "blockHash": "0x3dc366f0b4011cbc95c9ec8c1d8644aecbb5ea8b77e6c1e99bd9a33a823d3106",
      "blockNumber": "0x37f0aa",
      "gasUsed": "0xcc29",
      "effectiveGasPrice": "0x1ff99f",
      "from": "0xc7707c2e698895f640a37fbebaa9e719cf8bd34e",
      "to": "0xad09aca891fbc34c62b7530bbfffc565a3badaf2",
      "contractAddress": null
    },
    {
      "status": "0x1",
      "cumulativeGasUsed": "0x540e35",
      "logs": [
        {
          "address": "0xad09aca891fbc34c62b7530bbfffc565a3badaf2",
          "topics": [
            "0x5d7c78d0ee3ce6196f90e74ed58c0ada9ac7ccc47d3aca0547ac893776f03826"
          ],
          "data": "0x0000000000000000000000000000000000000000000000000de0b6b3a7640000",
          "blockHash": "0x3dc366f0b4011cbc95c9ec8c1d8644aecbb5ea8b77e6c1e99bd9a33a823d3106",
          "blockNumber": "0x37f0aa",
          "transactionHash": "0x64afe821c1f079fd2ef9fb1589e5dcf00fafb735d68d5bd52935ecad6c878e17",
          "transactionIndex": "0x12",
          "logIndex": "0x1f",
          "removed": false
        }
      ],
      "logsBloom": "0x00000000000000000000000000000000000000800000000000000000000000000000000000000000000000000000000000000080000000000000000000000000000000000000000000000000000000000000100000000000000000000000000000000000000000000000000000000000000000000000000000000000000000000000000000000000000000000000000000000000000000000000000000000000000000000000000000000000000000000000000000000000000000000000000000040000000000000000000000000000000000000000000000000000000000000000000000000000000000000000020000000000000000000020000000000000",
      "type": "0x0",
      "transactionHash": "0x64afe821c1f079fd2ef9fb1589e5dcf00fafb735d68d5bd52935ecad6c878e17",
      "transactionIndex": "0x12",
      "blockHash": "0x3dc366f0b4011cbc95c9ec8c1d8644aecbb5ea8b77e6c1e99bd9a33a823d3106",
      "blockNumber": "0x37f0aa",
      "gasUsed": "0xd2c7",
      "effectiveGasPrice": "0x1ff99f",
      "from": "0xc7707c2e698895f640a37fbebaa9e719cf8bd34e",
      "to": "0xad09aca891fbc34c62b7530bbfffc565a3badaf2",
      "contractAddress": null
    },
    {
      "status": "0x1",
      "cumulativeGasUsed": "0x549ca0",
      "logs": [
        {
          "address": "0xe96cf107d55598243fe3eee956cee0f2d5c547a3",
          "topics": [
            "0xddf252ad1be2c89b69c2b068fc378daa952ba7f163c4a11628f55a4df523b3ef",
            "0x0000000000000000000000000000000000000000000000000000000000000000",
            "0x000000000000000000000000c7707c2e698895f640a37fbebaa9e719cf8bd34e"
          ],
          "data": "0x00000000000000000000000000000000000000000000d3c21bcecceda1000000",
          "blockHash": "0x3dc366f0b4011cbc95c9ec8c1d8644aecbb5ea8b77e6c1e99bd9a33a823d3106",
          "blockNumber": "0x37f0aa",
          "transactionHash": "0xa02f08af4b63bc8f167f39db3c8214df8fd26383d5b6a579e8ef41111a50db11",
          "transactionIndex": "0x13",
          "logIndex": "0x20",
          "removed": false
        }
      ],
      "logsBloom": "0x00000000000000000000000000000000000000000000000000000000000000000000000020000000000000020000004000000000000000000000000000000000000000000000000000000008000000000000000000000000000080000000000000000000020000000000000000000800000000000000000000000010000000000000000000000000000000000000000000000000000000000000000000000000000000000100000000000000000000000000000000000000000000000000000000000002000000000000000000000000000000000000000080000000000020000000000000000000000000000000000000000000000000000000000000000000",
      "type": "0x0",
      "transactionHash": "0xa02f08af4b63bc8f167f39db3c8214df8fd26383d5b6a579e8ef41111a50db11",
      "transactionIndex": "0x13",
      "blockHash": "0x3dc366f0b4011cbc95c9ec8c1d8644aecbb5ea8b77e6c1e99bd9a33a823d3106",
      "blockNumber": "0x37f0aa",
      "gasUsed": "0x8e6b",
      "effectiveGasPrice": "0x1ff99f",
      "from": "0xc7707c2e698895f640a37fbebaa9e719cf8bd34e",
      "to": "0xe96cf107d55598243fe3eee956cee0f2d5c547a3",
      "contractAddress": null
    },
    {
      "status": "0x1",
      "cumulativeGasUsed": "0x552b0b",
      "logs": [
        {
          "address": "0x3f5c3d41129fa54bc90e7615a0a5b453c9545aee",
          "topics": [
            "0xddf252ad1be2c89b69c2b068fc378daa952ba7f163c4a11628f55a4df523b3ef",
            "0x0000000000000000000000000000000000000000000000000000000000000000",
            "0x000000000000000000000000c7707c2e698895f640a37fbebaa9e719cf8bd34e"
          ],
          "data": "0x00000000000000000000000000000000000000000000d3c21bcecceda1000000",
          "blockHash": "0x3dc366f0b4011cbc95c9ec8c1d8644aecbb5ea8b77e6c1e99bd9a33a823d3106",
          "blockNumber": "0x37f0aa",
          "transactionHash": "0x02a89d71adf277acc6536d06a2f52a9e154d18f14050cc4a9783ea549a32e99f",
          "transactionIndex": "0x14",
          "logIndex": "0x21",
          "removed": false
        }
      ],
      "logsBloom": "0x00000000080000000000000000000000000000000000000000000000000000000000000000000000000000020000000000000000000000000000000000000000000000000000000000000008000000000080000000000000000080000000000000000000020000000000000000000800000000000000000000000010000000000000000000000000000000000000000000000000000000000000000000000000000000000100000000000000000000000000000000000000000000000000000000000002000000000000000000000000000000080000000000000000000020000000000000000000000000000000000000000000000000000000000000000000",
      "type": "0x0",
      "transactionHash": "0x02a89d71adf277acc6536d06a2f52a9e154d18f14050cc4a9783ea549a32e99f",
      "transactionIndex": "0x14",
      "blockHash": "0x3dc366f0b4011cbc95c9ec8c1d8644aecbb5ea8b77e6c1e99bd9a33a823d3106",
      "blockNumber": "0x37f0aa",
      "gasUsed": "0x8e6b",
      "effectiveGasPrice": "0x1ff99f",
      "from": "0xc7707c2e698895f640a37fbebaa9e719cf8bd34e",
      "to": "0x3f5c3d41129fa54bc90e7615a0a5b453c9545aee",
      "contractAddress": null
    },
    {
      "status": "0x1",
      "cumulativeGasUsed": "0x55e179",
      "logs": [
        {
          "address": "0xe96cf107d55598243fe3eee956cee0f2d5c547a3",
          "topics": [
            "0x8c5be1e5ebec7d5bd14f71427d1e84f3dd0314c0f7b2291e5b200ac8c7c3b925",
            "0x000000000000000000000000c7707c2e698895f640a37fbebaa9e719cf8bd34e",
            "0x000000000000000000000000ad09aca891fbc34c62b7530bbfffc565a3badaf2"
          ],
          "data": "0xffffffffffffffffffffffffffffffffffffffffffffffffffffffffffffffff",
          "blockHash": "0x3dc366f0b4011cbc95c9ec8c1d8644aecbb5ea8b77e6c1e99bd9a33a823d3106",
          "blockNumber": "0x37f0aa",
          "transactionHash": "0x7a22e859f7056185b5250677c270c7688e215ca971da498960df78685683429c",
          "transactionIndex": "0x15",
          "logIndex": "0x22",
          "removed": false
        }
      ],
      "logsBloom": "0x0000000000000000000000000000000000000000000000000000000000000000000000002000000000000002000000c000000000000000000000000000200000000000000000020000000000000000000000000000000000000080000000000000000000000000000000000000000000000000000000000000000000000000000000000000000000000000000000000000000000000000000000000000000000020000000100000000000000000000000000000000000000000000000000000000000000000000000000000000000000000000000000000080000000000000000010004000000000000000000000000000000000000000000000000000000000",
      "type": "0x0",
      "transactionHash": "0x7a22e859f7056185b5250677c270c7688e215ca971da498960df78685683429c",
      "transactionIndex": "0x15",
      "blockHash": "0x3dc366f0b4011cbc95c9ec8c1d8644aecbb5ea8b77e6c1e99bd9a33a823d3106",
      "blockNumber": "0x37f0aa",
      "gasUsed": "0xb66e",
      "effectiveGasPrice": "0x1ff99f",
      "from": "0xc7707c2e698895f640a37fbebaa9e719cf8bd34e",
      "to": "0xe96cf107d55598243fe3eee956cee0f2d5c547a3",
      "contractAddress": null
    },
    {
      "status": "0x1",
      "cumulativeGasUsed": "0x5697e7",
      "logs": [
        {
          "address": "0x3f5c3d41129fa54bc90e7615a0a5b453c9545aee",
          "topics": [
            "0x8c5be1e5ebec7d5bd14f71427d1e84f3dd0314c0f7b2291e5b200ac8c7c3b925",
            "0x000000000000000000000000c7707c2e698895f640a37fbebaa9e719cf8bd34e",
            "0x000000000000000000000000ad09aca891fbc34c62b7530bbfffc565a3badaf2"
          ],
          "data": "0xffffffffffffffffffffffffffffffffffffffffffffffffffffffffffffffff",
          "blockHash": "0x3dc366f0b4011cbc95c9ec8c1d8644aecbb5ea8b77e6c1e99bd9a33a823d3106",
          "blockNumber": "0x37f0aa",
          "transactionHash": "0xfb01bab3ac5001c1a400f070418904baae75792b550eabb3109aa027fb292ccd",
          "transactionIndex": "0x16",
          "logIndex": "0x23",
          "removed": false
        }
      ],
      "logsBloom": "0x00000000080000000000000000000000000000000000000000000000000000000000000000000000000000020000008000000000000000000000000000200000000000000000020000000000000000000080000000000000000080000000000000000000000000000000000000000000000000000000000000000000000000000000000000000000000000000000000000000000000000000000000000000000020000000100000000000000000000000000000000000000000000000000000000000000000000000000000000000000000000080000000000000000000000000010004000000000000000000000000000000000000000000000000000000000",
      "type": "0x0",
      "transactionHash": "0xfb01bab3ac5001c1a400f070418904baae75792b550eabb3109aa027fb292ccd",
      "transactionIndex": "0x16",
      "blockHash": "0x3dc366f0b4011cbc95c9ec8c1d8644aecbb5ea8b77e6c1e99bd9a33a823d3106",
      "blockNumber": "0x37f0aa",
      "gasUsed": "0xb66e",
      "effectiveGasPrice": "0x1ff99f",
      "from": "0xc7707c2e698895f640a37fbebaa9e719cf8bd34e",
      "to": "0x3f5c3d41129fa54bc90e7615a0a5b453c9545aee",
      "contractAddress": null
    }
  ],
  "libraries": [],
  "pending": [],
  "returns": {},
  "timestamp": 1744549543,
  "chain": 17000,
  "commit": "8c0bab6"
}